S0160000455345353136204D41494E2046572E7372656393
S214000000087E002085F3000069F3000069F3000015
S21400001000000000000000000000000000000000DB
S2140000200000000000000000000000000562000064
S2140000300000000000000000E162000025630000F0
S21400004069F3000069F3000069F3000091D5000031
S21400005011D2000069F3000069F3000069F30000A4
S21400006069F30000B9D90000C9D90000D9D9000049
S214000070E9D90000F9D9000009DA000039F30000D8
S21400008049F3000059F30000454E0000554E0000AD
S214000090654E0000000000000000000069F300004C
S2140000A069F3000069F3000069F3000069F30000DB
S2140000B00000000010B5064C2378002B07D1054B36
S2140000C0002B02D0044800E000BF0123237010BDBF
S2140000D0F803002000000000B0C00100084B10B577
S2140000E0002B03D00749084800E000BF0748036814
S2140000F0002B00D110BD064B002BFBD09847F9E72C
S21400010000000000FC030020B0C00100B0C00100E9
S21400011000000000044B00229A81044999602820C0
S21400012018705960DA817047684500201404002072
S21400013010B5014B984710BD1501000000B583B0FF
S2140001406B460022DA710733074828320270233ADA
S2140001508281064A826043600123C381FA218900B6
S214000160034B984703B000BD6845002014040020E8
S214000170492F000010B5054C2000054B98476378C2
S2140001800F2018400002A378184310BD1404002066
S2140001903D010000F0B5CE4600B582B0264B98472C
S2140001A00400264B1F780921012F03D000230026C8
S2140001B0234D04E00431F9E701338B4205DA9A0057
S2140001C052599442F8DD1E00F6E79A23FF339C420C
S2140001D02CDD1C4B9C4203DD002F29D0012F29D09B
S2140001E0741C174B9946B600F558174FF3590093F1
S2140001F0401B164EB0470190A4004A46A058401B2C
S214000200B047011C0198124B9847061C009D291CFC
S214000210E059104B9847011C301C0F4B9847291C7F
S2140002200E4B984702B004BC9146F0BD0020F9E79B
S2140002300B48F7E70B48F5E77501000019040020A6
S21400024034000020650E000000000020ED6701006D
S214000250A55F01007564010035620100815C010044
S214000260295CE74000007041024B1A781043187072
S2140002707047C0461B04002070B5050005490120E4
S214000280054CA0476A689368526804490120A04755
S21400029070BDC046688901009D8B00008089010002
S2140002A070B584B0040003AB00221A705A709A70BE
S2140002B042689368526818490120184DA847236879
S2140002C09C68042216492000164B9847002820D127
S2140002D0201D02902379002B12D00024124E03AD6D
S2140002E00A2202A9B0476055029B1A782C2A07D129
S2140002F0581C0290022C03D001345B78002BEFD1FF
S21400030003A94B780A788978009108490120034CA4
S214000310A04704B070BDC046808901009D8B0000D8
S2140003208889010029380100D5390100908901002B
S214000330F0B587B004001422FF2101A82B4B984784
S2140003402368986809222A492A4B984700283BD1F7
S21400035029490130294DA8476268936852682849A0
S2140003600120A84722689368D26826490120A8473A
S21400037023689B681800093000905B7A002B13D026
S21400038001AC17256D44204E0A226946B0472070FE
S214000390009B1A782C2A07D1581C0090AC4203D038
S2140003A001345B78002BEFD118490120134B984796
S2140003B001AC06AF164E114D227831000120A84739
S2140003C00134A742F8D10FE0124901200B4DA8478F
S2140003D06268936852680A490120A84722689368B1
S2140003E0D26808490120A84707B0F0BD832B01005A
S2140003F0F088010029380100FC8801009D8B000070
S2140004008089010018890100D53901002089010082
S214000410348901003889010010B50A4B1A68013288
S2140004201A601B68282B02D90122064B1A60054B5E
S2140004301B68054A3F210548054CA0470122054B8D
S2140004401A7010BDE40100200C8A0100A8000020EC
S214000450BD3601007406002010B5014B984710BD4C
S214000460BD1E010010B5014B984710BDB11E01001E
S21400047010B582B0154B1B78DA0712D59A0715D53A
S2140004805A0718D41B071BD411490120114B984753
S21400049000230093012210491048114CA04702B0D7
S2140004A010BD104901200B4B9847F8E70E49012074
S2140004B0084B9847F3E70D490120064B9847EEE7AF
S2140004C00B490120034B9847E9E7C0461B04002070
S2140004D0388E01009D8B0000648E0100D045002000
S2140004E03D3E0000888D0100B48D0100E08D0100C6
S2140004F00C8E010000B587B06846134B9847134B27
S214000500029380239B000393114A04920593114B98
S2140005106A461380104B938069461048104B9847E4
S214000520021E07DB0F490D480F4B9847021E06DBDD
S21400053007B000BD0D4901200D4B9847FEE70D4959
S21400054001200B4B9847FEE7851E0100B0060020F1
S214000550B00800205B070000701700007806002037
S214000560CD1D010079050000A11E0100A48901002F
S2140005709D8B0000D889010030B587B004000129A2
S21400058030D005294AD0002901D007B030BD136805
S214000590002B1CDB24490120244B9847244A0023C7
S2140005A00593049303930293019300921300012191
S2140005B02000204CA047002804D01F4901201B4BD8
S2140005C09847E2E71D490120184B9847DDE71C4D88
S2140005D02A001C490120154B9847290020001A4B79
S2140005E09847D2E71278002A13D1184B02321849DE
S2140005F0184DA847184B022218492000A847184B48
S214000600022218492000A84717490120074B98479F
S214000610BBE716490120054B9847B6E71449012069
S214000620024B9847B1E7C046108C01009D8B000036
S2140006302C8C0100F51E01003C8C0100648C01002E
S214000640FC8B0100808C0100C91E010031030000F4
S214000650B88C0100F91F0100A1020000CC8C01003B
S21400066079020000E08C0100F48C0100088D010086
S2140006703C8D010070B584B005000C00FF2213000D
S2140006800B40090E0291210C11400191210A0A40EB
S2140006900092020004490120044EB04721002800C1
S2140006A0034B984704B070BD588D01009D8B000029
S2140006B00D39000010B5014B984710BD39450000B4
S2140006C0F0B5DE4600B5C8B007000E0001910392F3
S2140006D0FB22002109A8524DA8470922002106A89E
S2140006E0A84700230593002E00D190E0002F00D1EC
S2140006F08FE04C4D0022310028004B4B98470700F6
S21400070028004A4B9847002F00D084E03000484B22
S214000710984703000020FA2B7ED82E213000454B48
S2140007209847051E39D0424B9847070084B2072CDD
S21400073020D8290006A8404B984730003C4B9847E5
S2140007403F043F0CC71BF62F09D9F6252D1BADB26B
S2140007502A00310009A8394B9847012411E0019B73
S214000760EA1A95B21204120C190009A8334B9847DE
S214000770012406E0F622019909A8304B9847002488
S214000780F6256E1CB6B22D2209AB5A550125F31C70
S21400079009AA94466344029319E0F622019909A82F
S2140007A0264B98470024F625EBE71E4F002209A9A2
S2140007B038001D4B9847834638001C4B98475B46CD
S2140007C0002B16D101351E4BAAB29A421DD82A001C
S2140007D01C4905A81C4B984709AB9819032205A984
S2140007E0164B9847002CE0D006A90298124B984763
S2140007F0DBE7039A0021019C2000094B984709A9D2
S21400080020000D4B9847012006E0002004E0002061
S21400081002E0012000E0012048B004BC9346F0BD91
S214000820832B01004C060020610D0100AD11010074
S2140008301B38010075380100CF3701004B38010026
S214000840E7030000508D010021370100F0B583B0AA
S21400085005000E0000280CD000290AD03C4B1B785F
S2140008601B0732D43B4B30221A700A325A703A4C6D
S21400087006E03A4901203A4B984703B0F0BD040021
S214000880601E03782F2BFAD1364B9847012831D9B2
S214000890304FB81C2100344B9847344CFA223900AC
S2140008A02000334B98473A00324901202C4B98479A
S2140008B00A2239002000304B9847002822D1002217
S2140008C02E4B1A6008202E4B98470023019301AB4D
S2140008D03200290025482B4CA047002818D0234872
S2140008E0294B98472020264B9847284901201C4B27
S2140008F09847C2E726490120194B98472020204BED
S2140009009847BAE7020023490120154B9847B4E7F9
S2140009101A4C236801998C4663441A0023601E4DC6
S2140009202B681E4901200E4EB04722682B689A425B
S214000930A3D30E48144B984719490120084B9847F3
S21400094080221204174B5A6110200D4B984794E7EB
S2140009501B040020E80000208C8E0100908E010011
S2140009609D8B00001B380100CF3701004C0600208D
S214000970C1060000B48E0100610D0100B00A00201F
S21400098069020000E90E0100AD110100508F010060
S214000990DC8E01001C8F0100700600208C8F010089
S2140009A0C08F01000044004170B51400042907D828
S2140009B089002D4B5B589F462C4901202C4B9847AD
S2140009C070BD2C4901202A4B984704202A4B984793
S2140009D0F6E71288636829490120254DA847238831
S2140009E0C82B10D16168264B19600022254B1A606F
S2140009F0C8239B009942E3D8A068234B9847102051
S214000A001D4B9847DCE720201B4B9847D8E711681A
S214000A1050681D4B9847237A002BD1D01020164BD8
S214000A209847CDE7126819490120114B984723686B
S214000A300B33C5D1164B1B781B0706D4144B1B78FB
S214000A405A070BD4134B9847BAE71348134B9847EB
S214000A500F4A137808218B431370EFE70422934361
S214000A600B4A1370EEE7C046DC880100208A0100BE
S214000A709D8B0000588A010069020000848A0100EC
S214000A8070060020B00A00204D080000C08A010051
S214000A901B040020710400004C060020AD1101006C
S214000AA010B582B02C2803D0322837D002B010BD43
S214000AB00B78012B1DD0002BF8D128490120284B9C
S214000AC09847284A137802218B4313701B0717D4C4
S214000AD0244B1B785A071CD401212348234B9847E4
S214000AE0FF230093224B022211212248224CA047CA
S214000AF0DCE7224901201A4B9847214B9847D5E757
S214000B002048214B9847174A137808218B431370C7
S214000B10DEE704229343134A1370DDE74B780A7826
S214000B20C878019089780091184901200C4CA0479C
S214000B300220174B9847174B1B78012B0AD01649F3
S214000B400948164B98470028B0D015490120044B99
S214000B509847ABE7134B9847A8E7C046A891010013
S214000B609D8B00001B040020780600208D1F0100CE
S214000B70CC910100DC910100A5AF00008891010036
S214000B80C1AF00004C060020AD110100F09101003D
S214000B90690200001A040020FC8B0100C91E010037
S214000BA0189201007104000070B51C4B98471C4950
S214000BB001201C4B98471C4E1A4C09E01B49A047C5
S214000BC01B490120A0471B4D0020A8470228FBD147
S214000BD00020B0470128F1D00028F9D1164901308D
S214000BE0104B9847154C8C22920000212000144B85
S214000BF0984721000020134B98470B2807D012492E
S214000C000120084B98470120104B984770BD0B22D7
S214000C100F490A38034B9847F8E7C046198D00007D
S214000C20F08A01009D8B00004D940000288B010087
S214000C30508B0100398D0000848B01001C040020BD
S214000C40832B0100310D0100D88B010069020000E2
S214000C50A88B010010B584B001AC2000074B984764
S214000C603723019300236360013323720133E37259
S214000C7021000720024B984704B010BDE9D20000BF
S214000C80FDD2000010B5002207210448044B984707
S214000C9000210720034B984710BDC04619040000EA
S214000CA0A5D10000D1D10000F0B5D6464F46464645
S214000CB0C0B592B06420C64B98470022C54B1A7048
S214000CC004210520C44CA047C44D286000220621FC
S214000CD00520A047C24B1860002214210220A0471E
S214000CE0C04B1860002202210520A047BE4B1860AA
S214000CF02B68002B43D0BA4B1B68002B3FD0B94B58
S214000D001B68002B3BD0002839D0B848B84B984712
S214000D1005A8B84B9847B84C05A92000B74B98478C
S214000D202000B74B984705A8B64B9847C8239B00AA
S214000D300993069405A9B448B44B9847021E22DBD3
S214000D40B349B148B34B9847B34B9847B34B984712
S214000D50B34B9847B34B9847182200210CA8B24BC8
S214000D609847B24B9847B24B0C930CA8B14B984798
S214000D70021E0DD0B0490120B04B9847FEE7B048A0
S214000D809B4B9847C1E7AF490120AC4B9847FEE71D
S214000D90AD4C2200AD490120A84B9847AC4B984774
S214000DA0AC49AD48AD4B9847FF230093AC4B0222AD
S214000DB011212000AB4CA047864B1B789B070AD41A
S214000DC0A94E8D4DA94C0020B0472800A047814B66
S214000DD01B789B07F7D5FA2080007D4B98470122A9
S214000DE0A34B1A709846A04B99461D002BE0002B8B
S214000DF000D0A6E19F4B9847874B98479549964861
S214000E00964B9847924B984734239B4AD35C002BCB
S214000E1028D09A490120894B98470122944B1A7092
S214000E2005A900230B706D4B18680022944B984759
S214000E30012800D189E1934B1B78002B00D089E173
S214000E406420634B984743461B78012B1BD05AB24D
S214000E50012ACCDD022B00D191E0032B00D070E1FB
S214000E605C4E45E188491000884B9847002805D11C
S214000E703423814AD35C002BCFD0CAE784490120B3
S214000E806E4B9847F4E70020C8475B48774B984777
S214000E90544B1868002205A9794B9847012811D0B1
S214000EA04F4B1868002205A9754B9847012849D072
S214000EB03423714AD35C002BB2D064211000754BEA
S214000EC09847ADE7744A754B03CB03C21B88138063
S214000ED005AB1F78FF2F18D00026714C05E003A93C
S214000EE02C230B806C486F4B98473B006E4A0321BF
S214000EF003A8A04703A968486A4B9847013605AB84
S214000F00F75CFF2F01D0142EE9D1634E3000674FF7
S214000F10B847301803226649664B984731000120CF
S214000F20464CA04764490120A0473000B84703005C
S214000F300022019201320092320060494E48604E13
S214000F40B047ADE705AA0021535E534E0420115E5C
S214000F5001910221525E00925A4A3F213000504FC2
S214000F60B8473000514B98470300002201920132E7
S214000F700092320054494048514EB04798E74249E3
S214000F803D48524B984700281DD134233A4AD35C3B
S214000F90002B07D0344C170034260020A047BB5D3A
S214000FA0002BFAD1334B98470122494B1A70494916
S214000FB049482A4B9847264B9847484B9847032260
S214000FC02B4B1A702CE7324901201C4B9847DCE764
S214000FD0C97C00001B04002009670000C40A00202A
S214000FE0C00A0020BC0A0020B80A00201C9001009D
S214000FF0ED8A000081470000784500208D470000FC
S2140010003948000099370000D0450020C13700005D
S214001010A909000075380000F5040000A90B0000BF
S214001020550C0000850C0000832B0100159D000068
S214001030A10A000001AC0000809001009D8B00001A
S214001040F48F010038900100DC910100AC900100A3
S21400105071CA00005904000065040000F1CA0000CF
S214001060CC910100A5AF00002DAD0000C1480000E6
S214001070B40A0020B5CA000078060020D09001000F
S214001080E16E000074060020FC8B0100C91E010002
S214001090189201001D20010068000020F088010061
S2140010A0BD360100A1370100EC9001001B3801009D
S2140010B0F09001004D2B01007CBC0100F490010073
S2140010C0BD1F010008910100E08C01008D1F01008A
S2140010D01A04002075060000B50600007104000022
S2140010E00020A8472648274B98470520264B9847B8
S2140010F03378DA06F4D59B06F2D4244B9847FA20C8
S2140011008000214B98470022214B1A7005A9214BDD
S2140011100A0051CB51C20A221F48204B984700288C
S21400112009D11F481F4B98471B481F4B9847002262
S2140011301E4B1A7074E602001D4900201D4B98478E
S214001140F2E70022194B1A706AE605AB1A78174BBD
S2140011501A7070E6184E3000184B984703000027A8
S214001160019701220092320015491648164CA047F6
S2140011703200164901200F4B9847154B1F705FE64B
S21400118078450020C1480000C97C0000B5CA0000B0
S2140011901A0400207C9101004C060020610D01001D
S2140011A03C910100ED8A0000AD110100B40A002058
S2140011B02C9101009D8B0000A80000201B38010028
S2140011C05091010078060020BD1F01006C910100BF
S2140011D07406002010B582B06B46D871032801D97A
S2140011E002B010BD044B186800230A226946073176
S2140011F0024CA047F4E7C046C40A00204568000039
S21400120001680722CB691A42FCD1704770B504000A
S21400121006683268458B838BED1AADB2838B013B33
S2140012209BB2838313011DD5C37A002B03D0838B17
S2140012309BB2012B10D0A38B9BB2002B02D1A37ABA
S214001240002B1CD12000124B9847236A5D192823D7
S214001250F35CDBB22B7070BD72688023DB02134335
S2140012607360E8E7C37A002BE5D0838B9BB2002B34
S214001270E1D172688023DB0213437360DBE7200052
S214001280034B98477268C0239B0213437360D9E7E9
S2140012900112000070B5040005686B8B5B0703D570
S2140012A01E222523C25470BD468B838BF61AB6B217
S2140012B0838B013B9BB28383044B9847236A9E191A
S2140012C03378DBB22822AB54EDE7C04601120000AB
S2140012D070B505000C0006684B7A002B1AD17368AF
S2140012E0134A1340736063682B626388AB830022E3
S2140012F02423EA5405320133EA54223BB375237A99
S214001300002B0BD123885B00627A9203134373622F
S214001310002070BD897A074B9847E0E723885B007A
S214001320627A920313438022120213437362EFE73A
S214001330FFFFFBFFC14D0000F8B505000C00066876
S2140013404B6803624B88838301222423C2540432F1
S2140013500133C25437683F01FF0F4B7A002B17D179
S214001360002F02D06388012B16D07368204A1340E2
S2140013707360237A002B15D10323B37523885B0093
S214001380627A920313430122134373620020F8BD6E
S214001390897A184B9847E3E772688023DB02134389
S2140013A07360E6E723885B00627A92031343802229
S2140013B012021343736228000F4B984773680C4A57
S2140013C0134073600028E2D128000C4B9847002891
S2140013D0DDD10323B37523881B0A782213435B00F1
S2140013E0627A920301210A4313437362CFE7C04631
S2140013F0FFFFFBFFC14D0000954D0000654D00004E
S214001400931C9B00C3185960037E012191400B4337
S214001410DBB203767047000010B5838B9BB20522C3
S214001420002B01D0100010BD01338372C372024B33
S21400143098470200F6E7C0463913000010B5838BC4
S2140014409BB20522002B01D0100010BD0133837221
S214001450C372024B98470200F6E7C046D11200005E
S21400146070B58000754BC45825682B681B01DA0FD1
S214001470637E267E1E40638B9BB2002B03D1A38B1C
S2140014809BB2002B23D1638B9BB2002B08D0A38B7F
S2140014909BB2002B04D12533E35C052B00D16DE015
S2140014A0638B9BB2002B24D0A38B9BB2002B20D047
S2140014B06B8B9B0600D581E0002A04D0A38B9BB2E1
S2140014C0012B00D17AE041222523E25411E02B7E45
S2140014D0DB0707D501232B766B8B9B072ED5412286
S2140014E02523E254A38B9BB263832523E35C052B61
S2140014F038D0638B9BB2002B07D0A38B9BB2002BFC
S21400150003D12533E35C052B64D02523E35C052B50
S21400151013D02523E35C002B0FD003232B75002369
S2140015206383A3832533E35C412B03D0A37A002B8C
S21400153000D075E0730700D57BE070BD6B8B5B0752
S214001540D0D518222523E2540023A383A37A002BA8
S214001550C8D020003A4B98476A68C0239B021343C2
S2140015606B60BFE71F33E35C002B03D02000354BD6
S2140015709847BEE72000344B9847BAE71F33E35C32
S214001580002B00D08CE703332B75002363832533B1
S2140015900022E254A37A002B07D101232B76F3070F
S2140015A0A7D5E36820009847A3E72000244B984778
S2140015B06A68C0239B0213436B60F0E72423E35C56
S2140015C0002B03D12000204B984792E720001D4BAC
S2140015D098478EE71F33E35C012B96D12B7E9B0743
S2140015E001D502232B7603232B7500236383253333
S2140015F00022E254B30703D52423E35C012B0BD06F
S214001600F30700D481E72423E35C002B00D07CE7BB
S214001610E3682000984778E723692000984774E736
S2140016202000074B98476A68E023DB0213436B6091
S21400163080E76369200098477FE7C046245D002066
S214001640011200000D12000095120000F8B5CE46FB
S214001650474680B50E00C010CC8B6400041BE7170D
S214001660FB0760081843144D02003B003900A847EA
S2140016700B05000B184309132223F2561201D31749
S214001680A847804689462023F05EC11722003B000B
S214001690A8474905C00A08434B469A0443469B0B95
S2140016A01343C318B3639800C0188030001200B20A
S2140016B00CBC90469946F8BDC55B010070B50C00A1
S2140016C08B6B59102A4B9C4661448B105B43DA1295
S2140016D02E2565576A4392102C26A55F4D436D0054
S2140016E0AD18AD102626A25F4A4352102821665632
S2140016F0760159137143C9108918891480231B0277
S2140017009C466144A38C5943C91380235B03181A73
S2140017102A22A35E1B045B191B13C31A15485843E1
S214001720154B98421FDC4000144B9847C31001121B
S2140017305B435A133225635F53431B1382103026D4
S214001740A55F55436D135B190A004A435143342283
S214001750A25C4A4352149B182F22A256D2019B1811
S2140017601B11C01870BD054B98474000DEE7C04609
S2140017700006FFFF350C0000FFFFFF3F2959010060
S214001780F0B5C64600B507000E00886B8400241826
S214001790803424121620085660431F4B9846642156
S2140017A09847604380116421C047050015203056D5
S2140017B060436421C0472D188023DB019C466544A6
S2140017C0708A4543AD12308A00013F1A1420305605
S2140017D060436421C0474010381A454318203056ED
S2140017E060436421C047F37DDB01C018AB135B4345
S2140017F09B1200115843401040198012FA239B0098
S21400180058430013C343DB171840044B984200DDCF
S214001810180004BC9046F0BD29590100A0860100BE
S214001820F0B5CE46474680B5A1B08146884617003B
S21400183010AD234C402221002800224EB047210044
S214001840403140226846B0473E23FC562200E4174B
S2140018502300960FA10031439000801859411A4E7C
S21400186000278019794143469F007A59174E002376
S214001870B0470C04020C22430B1400254946CC0347
S214001880FF2000060121494224184D41A4185D415D
S214001890694678580021B047CE05420A32434B12BB
S2140018A0EE076008304369108018594122002B006B
S2140018B0074CA04721B00CBC90469946F0BDC046E8
S2140018C0409201004D2B01003C050000C55B010065
S2140018D07D5B010070B50E001A23CA5E214B9C4644
S2140018E06244031CC8214900884201D91E4B1B884C
S2140018F098B25043830018181C4C6421A047C82394
S2140019009B039C4660440A21A0471923F356C42231
S2140019109200944663445843C50F2D186D100E234D
S214001920F3561C2030565843FA218900A04700027F
S21400193028183C23F15C0431A0473D23F356990157
S214001940C9184900C91880235B029C466144A04719
S2140019500300FA3B1801C018400032306421A0474B
S214001960C0B270BD995902003C920100295901008D
S21400197000280AD0036C002B0AD0436C002B0AD038
S214001980836C584258414042704701204042FBE772
S21400199001204042F8E701204042F5E730B583B029
S2140019A004000D000800184B9847002814D163B2B5
S2140019B0DB43DB0F1B016A7B9A420DD06B736B68AF
S2140019C0012269460731F3302C6CA0474C23E854BB
S2140019D0002803D00220404203B030BD6B46D91D1C
S2140019E06A7B102313400A781020824313430B703F
S2140019F06B68012263306C6CA0474C22A854002808
S214001A00EAD002204042E7E77119000030B583B003
S214001A1004000D4B9847002801D003B030BD636822
S214001A20012269460731F330256CA8474C22A054A2
S214001A30002805D16B46DA79102313406373ECE770
S214001A4002204042E9E7C0467119000070B5040064
S214001A500E00150010000B4B9847002C0BD00028EA
S214001A600CD12378B34205D926704D22AB5C0121F8
S214001A700B43AB5470BD01204042FBE701204042BF
S214001A80F8E7C0467119000070B582B00E00150068
S214001A900C4B9A810C4C9C606A46D07107325A6097
S214001AA00122DA8176321A70FA229200002118009A
S214001AB0064B98472A0021003000054B9847002027
S214001AC002B070BDB8460020C846002009300000AD
S214001AD04D2B010070B50A4C0023A381531CE381F3
S214001AE0084BA3606360772525701870581C064B5A
S214001AF09847FA2189002000044B9847002070BDC3
S214001B00B8460020C84600204D2B0100A92F000033
S214001B1010B5074B98470749074B9847074B984718
S214001B20FA2189004843064B9847064B984710BD54
S214001B308D68010000007A44A55F0100195C010071
S214001B4015580100C97C0000F0B5DE4657464E46E3
S214001B504546E0B587B081468A4690461F00142267
S214001B60002101A82E4B984738002E4B9847002896
S214001B7049D14B46002B49D05346002B49D043460B
S214001B80013B092B48D84346002B2BD000250024C8
S214001B9001AE16E0AB46CB445B4618783900224BC4
S214001BA0984763005A4612787F210A409A55630088
S214001BB0F3185246525D5A700134A4B22500A0456F
S214001BC007D93B7B002BE5D063004A46525D9A5509
S214001BD0EDE7002806D007B03CBC90469946A246E2
S214001BE0AB46F0BD43465A00013A01AB18787B6815
S214001BF0694605317C6CA0474C22B8540028EAD0D0
S214001C0002204042E7E701204042E4E7012040424C
S214001C10E1E701204042DEE704204042DBE7C04621
S214001C20832B0100711900009D190000F0B583B0E8
S214001C3006000D0001921F001800144B9847041E62
S214001C401DD1002D1ED03B7B002B0CD07B68019A4B
S214001C50290030003D6CA8474C23F85400280BD1CF
S214001C60200003B0F0BD39003000094B9847041E31
S214001C70ECD180231E43E9E702246442F0E7012406
S214001C806442EDE701246442EAE7C04671190000A9
S214001C909D19000030B583B00500E0226B46DA716E
S214001CA02A3A6B469A71124B9847041E1DD12B7B1D
S214001CB0002B15D02B0001226946063168460730F6
S214001CC00C4CA047041E10D169680B48AB6C9847B3
S214001CD02B7B002B09D12800084B9847040004E012
S214001CE02800064B9847041EE4D0200003B030BD01
S214001CF071190000491B0000102700000D1A000093
S214001D0070B58CB00400524B984723000122210086
S214001D10D020504DA847051E18D12378612B00D03F
S214001D2093E001A900230B7023000122F020494E06
S214001D30B047061E0AD101A90B78A360230017221C
S214001D408A20444DA847002803D0350028000CB050
S214001D5070BD23000E221B216944E1303D4DA8478B
S214001D600028F2D12300052229216944394DA847CD
S214001D700028EAD101AB2022995C0902DA7F0A43E7
S214001D80E283597809021A780A43228422259A782F
S214001D906255597909021A790A43A284D979090247
S214001DA09A790A43E284197A2822A154D97A090238
S214001DB09A7A0A436285597B09021A7B0A43A285EE
S214001DC0D97B2E22A154997B0132A154D97C0902D9
S214001DD09A7C0A432286597D09021A7D0A43628646
S214001DE0997D3422A1541A7E587E00010F2111409D
S214001DF001432182D97D090112090A4362829A7E33
S214001E002275DA7E62751A7FA2755A7FE2759A7F0E
S214001E10227623229A5C6276595D090221229A5C18
S214001E200A43628324229A5C227727229A5C9206CF
S214001E30920F3C2162542522995C1832A154143A20
S214001E409B561B111532A3547FE703256D427DE791
S214001E50951C00002D1C0000F0B5CE46474680B508
S214001E6083B081460E0074226B469A716B46DD1D68
S214001E701B4F1C4B98460FE0032293432B703300F6
S214001E80023A290068460630C047040071681648C2
S214001E90B36C9847002C1CD1330001222900742013
S214001EA0B847041E15D12B789A07E5D14B46002B70
S214001EB00FD06B46D91D0B78032293434846024049
S214001EC013430B703300012268460630054CA047CA
S214001ED00400200003B00CBC90469946F0BDC046F6
S214001EE02D1C0000491B00001027000070B582B0B2
S214001EF0041E0DD06B46DD1D0B0001222900742048
S214001F00054EB0472A7803231340237002B070BDF5
S214001F1001204042FAE7C0462D1C000070B584B090
S214001F2005000C004B4B1A6802921A7902AB1A7124
S214001F30052200216846484B984721000F20684438
S214001F40464B984700280ED0002D00D17FE0002891
S214001F500DD00F236B441B78002B02D0002800D135
S214001F6070E004B070BD21003D4B9847ECE702AB33
S214001F7018782300052269463A4EB04700224D23C2
S214001F80E25400283FD00028EBD1281D220008216B
S214001F90354B98470028DCD1EA7892001C261C3086
S214001FA002406B461979B143114349B2DA781F23D0
S214001FB013406A7852011343B343AA789200104044
S214001FC003436A46D3705378072293432878024027
S214001FD013436A4653702879082830D000251F22FC
S214001FE00A40400102436B461A711A787F23134059
S214001FF0ED012B436A46137023000522694602A8AA
S2140020001A4DA847A5E7E81C22000721164B98475B
S2140020100028BFD1681C22000521134B98470028D2
S214002020B1D1A81C220005210F4B9847002800D0EC
S2140020308FE72200052128000B4B9847A3E70125D0
S2140020400020CCE721001800054B984789E70120BF
S21400205040427EE7C0920100832B0100ED1E000087
S214002060591E00002D1C00004D1A0000491B0000E0
S214002070F0B5DE4657464E464546E0B5AFB00500DD
S2140020808946924698460C2200212BA8D54EB0478A
S2140020901CAC3C2200212000B0472B9421AB2C9393
S2140020A026AB2D934046D04B9847002800D0D2E16F
S2140020B04B46002B00D1D2E1012D13D0023D012D5D
S2140020C000D8A5E00025012300935346002B00D13D
S2140020D0C9E11D7000982FB03CBC90469946A246B8
S2140020E0AB46F0BD0FAC112200212000BD4B984737
S2140020F04346112221001D20BC4EB0470090237895
S2140021007F221F0097434A4617700F210B405370DB
S21400211063789370A6783603E3781B011E43237911
S2140021201B091E4360790003A3791B011843E3795A
S2140021301B0918430190237A1B02627A1A43029203
S214002140A37B627B9200980910430390E27B934640
S214002150247C1940049142469268012A32D05BB230
S21400216020221A401743102213401F434B461F706D
S214002170414601989E4B98474B46D88041463000D2
S2140021809C4B98474B469860414602989A4B984716
S2140021904B46D86043469B68012B1DD042460499A7
S2140021A00398964B98474B461861009B002B00D02F
S2140021B04FE14B461B787F2B00D986E7002502238C
S2140021C0009382E762B2202313401F4310231A4075
S2140021D017434B461F70CBE75B469B00A209134391
S2140021E0874A944663445900C9180F22224080202B
S2140021F0C002D04002008348504380235B019C46C7
S2140022006144814B9847642358434B461861CCE79A
S214002210332200210FA8734CA0471E22002107A8D6
S214002220A047434633220FA91D20704CA0470090BC
S21400223000280AD00025009B002B00D003E12BAE1F
S21400224000239C46E346AC46E4E043461E2207A92C
S2140022505020664CA0470090002800D007E10FAC45
S2140022608346534605932CE06B461B7B5BB22026C9
S2140022701E403143102633401943297057E0049B13
S2140022809B00039A910919435D4B9C4661444B00A1
S21400229059180F2313408020C002D8400300594825
S2140022A0584380235B019C466144574B9847642300
S2140022B058432861113404239C46E3445B460C2BA8
S2140022C05AD02BAB5A46D55823787F221900914313
S2140022D02970703A1A406A706378AB70A678360335
S2140022E0E3781B011E4323791B091E430196607980
S2140022F00003A3791B011843E3791B091843237ACB
S2140023001B02677A1F430297637B9A46A77BE37B91
S2140023100493237C039343469B68012BA4D07BB293
S21400232020261E403143102633401943297007AB40
S214002330995C29719B189A7AEA701B7D6B714146ED
S2140023402B4B9847E880414601982A4B9847A8604F
S21400235041460298284B9847E86043469B68012B05
S2140023608DD00F21394053469800BF093843424666
S214002370224B984728619DE7059B9A460023002537
S2140023802BA903E004330C2B00D158E75A581278D7
S2140023907F2AF7D90135EDB2F4E721787F2913D8E3
S2140023A00133DBB2032B31D0370030689A002BA9FB
S2140023B088464244146801787F29EED821787F2920
S2140023C0EED934601060EBE7A5788178691A89B297
S2140023D00DB2023189B2012901D9022DE0DD3C603F
S2140023E01060DDE7832B0100711900002D1C000032
S2140023F04D160000BD1600008117000021180000D1
S21400240000FEFFFF102700001558010004365B464B
S214002410022B07D05D460135EBB29B46022BC3D993
S2140024200436F7E7654600202BAAAC464C468300E8
S2140024301B18E3188158E0C9E0C360C960C30430C4
S2140024400C28F4D16546002D00D03EE6022300930A
S2140024503BE6002539E601235B4200933AE601237A
S2140024605B42009336E601235B42009332E600258A
S214002470009B002BD7D0E6E7F0B5DE4657464E4623
S2140024804546E0B595B00190029110000092BC4B15
S2140024901A8912AB1A80002900D136E1010000200B
S2140024A0B84B9847051E07D0280015B03CBC904690
S2140024B09946A246AB46F0BD6E2204ABDA71643A8A
S2140024C0002106A8B04CA0470A22002109A8A04770
S2140024D00A2200210CA8A0470A2200210FA8A04724
S2140024E0019B022B00D1ADE0032B64D0012B06D05C
S2140024F0002301930125002DD6D1019C14E05A2219
S21400250006AB1A70029C60880099A04B984709ABEE
S214002510187064220CAB1A70A1889D4B9B329942AE
S2140025203BD90FAB1A700024009B019A09A906A894
S214002530984DA8470500002DB6D1009E3300019A9D
S2140025400FA90CA8934DA847051EADD13300022253
S21400255013A97020904DA847051EA5D1029B1B7895
S214002560012B00D1C6E00020012313A90A78082514
S214002570AA43DB001A430A704B780F229343144099
S214002580234321329343000103434B70009B2E3AB2
S21400259012A8804CA047050086E73F2909D90023EA
S2140025A089080133DBB23F29FAD89B015B18DAB2FF
S2140025B0B7E70023F9E7029BDF68002F00D1BBE0F6
S2140025C09C68002C00D1BCE01B7C0193002B00D142
S2140025D0B0E05A33DBB299465A2500266B4B9A4632
S2140025E06B4B9B460EE000239B015B18DBB204AAF4
S2140025F02C215218935501360135EDB202340237BC
S2140026004D451DD004AB08229B189D552088009987
S214002610D04704AB14229B1898552B000A3304AA03
S2140026202021521893553988FF235945DFD83F2972
S214002630D9D9002389080133DBB23F29FAD8D3E77A
S214002640019C71E70299CB68002B00D17EE08A6876
S214002650002A00D17FE0488A8146002858D0097CAD
S214002660019100297CD01F006426002403951500E4
S214002670019B984633000A3B04AA082152181355BA
S21400268028880099414B984704AB14229B1818558C
S21400269004AB0C329B181E553B8804AA2C215218FA
S2140026A01355013402350136F6B20237E3B243451C
S2140026B0E0D3039D394AFF234946914205D904AA2F
S2140026C09371002D52D0019C35E7FA2080004B46CE
S2140026D05843DE21FF31324B984780B200233F2813
S2140026E004D980080133DBB23F28FAD89B011B18B7
S2140026F0DBB2E4E7009B9B680193012B02D001202C
S214002700002332E7022000232FE701256D42CBE6A7
S2140027100299097C019103250029A4D1FA208000A2
S2140027204B465843DE21FF311D4B984780B2019B34
S2140027300325DBE7019CF7E60023019301256D42A4
S214002740C1E70023019301256D42BCE700230193F6
S21400275001256D42B7E70023019301256D42B2E7DC
S2140027600E4B9842B1D9FF2204AB9A71009B01220E
S21400277004A9063104A80730064CA0470500BAE6AF
S214002780C0920100591E0000832B0100D5180000DE
S214002790BF0F0000491B00002D1C00008207000030
S2140027A01558010030B589B0040006A8012505704B
S2140027B005238370033B43702100084B984701A90B
S2140027C00D70FA239B008B80AF235B004B802200AA
S2140027D00120034B984709B030BDC0461D1F0000BE
S2140027E07924000010B582B0041E18D001290CD040
S2140027F064200C4B98470C4BA3646B46073363600E
S2140028001923A373002002B010BD77226B46DA713D
S214002810064B0364064B436401230373E8E7012079
S2140028204042F0E7D59C0000111B0000891A00000A
S214002830D51A0000BFF34F8F024A034BDA60BFF38E
S2140028404F8FFEE70400FA0500ED00E070B5A2B079
S214002850060003AC7822002120000F4B98470F4D4E
S214002860290001200E4B9847FA2080000D4B984710
S2140028702B0087226A44210001200B4DA847E368FD
S2140028800621625EA168009108493000084CA04706
S214002890002022B070BDC046832B0100705D002072
S2140028A0591E0000C97C000071200000089301003A
S2140028B021370100F0B585B002900391174B984779
S2140028C00700174C062200212000164B98472100CF
S2140028D03800154B98470023E05E144FB847144E57
S2140028E030600223E05EB84770600423E05EB847BD
S2140028F0041CB0600F4D3068A8470700201CA8478E
S21400290001907068A84700903B000B4A0399029814
S2140029100A4CA047002005B0F0BDC046893600002E
S214002920E40A0020832B0100593200003D310000EC
S214002930C80A0020AD670100E4920100BD36010020
S214002940F8B506000F00064D1B23064A0F21280087
S214002950054CA0472A0039003000A0470020F8BDEB
S214002960D40A0020F0940100BD36010010B5040022
S214002970054B9847054B984702000B00044920007A
S214002980044CA047002010BD95010000698401009A
S214002990D09201002137010030B58FB00AAC124B3F
S2140029A0220023CB23C21B68136020000F4B9847DE
S2140029B0302323700A22210001A80D4B98470028D7
S2140029C00CD10C480C4B984702200C4B9847FA2029
S2140029D080000B4B984700200FB030BD020009491D
S2140029E00020094B9847EFE734930100C51101001A
S2140029F0610D01001C930100ED8A0000D511000056
S214002A00C97C00002C9101009D8B0000F0B5D646D5
S214002A104F4680B583B06848684CA0476848A047D2
S214002A206848A0476848A0476848A0476848A04745
S214002A306848694B9847032200210120674B984756
S214002A40674B1860002806D166490330664B9847E6
S214002A500020664B98470024654B9946604B9A4683
S214002A6033E00121494253461868624B984701A853
S214002A705F4B98472DE06048574B984700245F4BC4
S214002A801C705F4B1C705F4D31225F4928005F4B06
S214002A9098473123EC545E4C5B4E5E4F6422210017
S214002AA03000B847050000226323E25420004A4B5A
S214002AB09847002DF2D1322200215348564CA047A9
S214002AC0642200215248A047002401A8C847431C9E
S214002AD0C7D06B461B790A2BCDD00D2BCBD0474ADF
S214002AE01278002A3FD0464A1278032A13D8511C7F
S214002AF0C9B243480170494883540129E5D9484979
S214002B004648484B984700280BD100233B4A137091
S214002B103B4A1370D9E70023384A1370384A1370BB
S214002B20D3E7394C1B2240492000404B98472000F1
S214002B30294B9847322200212000374B98473122F4
S214002B4030492000314B98472000394B98473124B4
S214002B50302803D82B48364B98470400E4B22A485E
S214002B601D4B9847D1E7082B10D07F2B0ED01B2B80
S214002B701AD0312C03D8244A13550134E4B200236A
S214002B806A46537101A8144B98479EE7294B1B6869
S214002B9000936846104B9847002C96D0013CE4B250
S214002BA00022194B1A5590E70122144B1A70002286
S214002BB0134B1A7089E7C04628950100AD4E0000F9
S214002BC0F8940100E094010018950100D0940100EB
S214002BD00895010060940100ED8A00000967000076
S214002BE008470020A49401009D8B0000697E000029
S214002BF0718B0000ED7100007CBC0100EA0A002029
S214002C00EB0A0020240B0020F00A00204B380100BD
S214002C10580B0020F14E0000832B0100EC0A002028
S214002C20C494010065370100C894010021370100F3
S214002C301B380100CC92010010B5084C002323601D
S214002C40074B18682100074B98472368002B03D0D2
S214002C5080225205044B1A6010BDC046BC0B0020F3
S214002C6008470020D16E000004ED00E010B582B0E9
S214002C7000240194074B186801A9074B9847074B97
S214002C801C70019B002B03D080225205044B1A6057
S214002C9002B010BD38470020D16E0000C00B0020E7
S214002CA004ED00E010B582B000240194074B1868CC
S214002CB001A9074B9847074B1C70019B002B03D0BC
S214002CC080225205044B1A6002B010BD384700201F
S214002CD0D16E0000C00B002004ED00E010B582B0FD
S214002CE000240194074B186801A9074B9847074B27
S214002CF01C70019B002B03D080225205044B1A60E7
S214002D0002B010BD38470020D16E0000C00B002076
S214002D1004ED00E070B50C4C00220C4920000C4D70
S214002D20A847637E0122134363760A492000A8471A
S214002D30637E02221343637607492000A847637E1A
S214002D4004221343637670BD104700206D2C0000EC
S214002D5001140000A52C0000DD2C000070B58EB01C
S214002D6001AB64220192334A0292002203921A7344
S214002D701A768021890305910121494299822531DD
S214002D805A540B9208315A5401315A5401315A544C
S214002D90D7321A86284A0892284A0992284ADA829E
S214002DA00324284D284E01AA28492800B0470028A9
S214002DB006D02448264B9847013CE4B2002CF2D1BA
S214002DC0204B1C680722E3691A42FCD123680222C2
S214002DD0134323601B4D28681E4B98471F2318403B
S214002DE01E3B83401C4A1360E88800231021628B38
S214002DF00A4204D101338342F9D310236383174B6D
S214002E0098470120164B9847164C20600322002155
S214002E100120154B9847154B18602368002B04D0EB
S214002E200023002802D1063300E0062318000EB067
S214002E3070BDC046480D00000200080002000900F0
S214002E401027000010470020F54900000008004247
S214002E50ED4C000089D9000000E100E0152D0000CF
S214002E606D6B00000C470020096700003847002003
S214002E7010B5002812D04368002B12D00A490278F9
S214002E800A804B60C3894B800848094B984700234B
S214002E90002801D1180010BD063BFBE708235B4263
S214002EA0F8E708235B42F5E73C4700201047002080
S214002EB03D14000010B5002813D04368002B13D033
S214002EC00B4903780B8083684B6083894B800948E5
S214002ED0094B98470023002801D1180010BD063B77
S214002EE0FBE708235B42F8E708235B42F5E7C046AA
S214002EF03C470020104700201914000010B5074B6F
S214002F001868002300220021054CA0470023012852
S214002F1001D1180010BD143BFBE7C0460C4700204B
S214002F204568000010B50100054B1868054B98472A
S214002F300023012801D1180010BD1D3BFBE7C04649
S214002F400C470020ED71000070B505000C0008006D
S214002F500F4B9847002800D070BD0E4B1E68280007
S214002F600D4B9847002805D1210030000B4B9847A1
S214002F70012802D00A4B9847EEE70A4B1B78002B35
S214002F8003D00022074B1A70F4E7054B9847E3E797
S214002F90252F000038470020B52E0000ED710000F8
S214002FA0FD2E0000C00B002070B505000C000800C8
S214002FB00F4B9847002800D070BD0E4B1E682800A7
S214002FC00D4B9847002805D1210030000B4B984741
S214002FD0012802D00A4B9847EEE70A4B1B78002BD5
S214002FE003D00022074B1A70F4E7054B9847E3E737
S214002FF0252F000038470020712E0000ED710000DC
S214003000FD2E0000C00B0020F8B505000E001400D1
S21400301010001B4B9847002800D0F8BD194B1F68BE
S2140030202800194B9847002805D121003800174B77
S2140030309847012802D0164B9847EEE7154B1B78A9
S214003040002B03D00022134B1A70F4E73000124B0B
S21400305098472800114B98470028ECD121003800EB
S2140030600A4B98470128E6D10A4B1B78002B03D061
S2140030700022084B1A70DEE7054B9847CDE7C0469E
S214003080252F000038470020712E0000ED7100004B
S214003090FD2E0000C00B0020C97C0000B52E0000ED
S2140030A0F0B585B005000092019302A8C31DC1715A
S2140030B0084C8026B6026661012219002800064FD9
S2140030C0B847019A00992800B847A661002005B0C5
S2140030D0F0BDC0460044004119DF0000F0B585B0E1
S2140030E0040001921E0002ABD81D80235B420B43F6
S2140030F00370094F8025AD027D610122010020008A
S214003100064B98470023320001992000044CA04744
S214003110BD61002005B0F0BD0044004119DF00008D
S21400312061DD000070B5856844682800A04770BD62
S21400313070B5856804682800A04770BD10B5034BBD
S21400314098470349034B984710BDC046ED670100FA
S21400315023DB793D3562010070B582B004000D00B6
S214003160012301AA10210A4EB047002801D002B060
S21400317070BD01AA032129408B0011780C308143D1
S21400318019431170012310212000024CA047EEE7DE
S214003190253100003131000070B582B004000D000A
S2140031A0012301AA11210A4EB047002801D002B01F
S2140031B070BD01AA072129404B0011780E308143CB
S2140031C019431170012311212000024CA047EEE79D
S2140031D0253100003131000070B582B004000D00CA
S2140031E0012301AA12210A4EB047002801D002B0DE
S2140031F070BD01AA012129408B011178403081431E
S21400320019431170012312212000024CA047EEE75B
S214003210253100003131000070B582B004000D0089
S214003220012301AA15210A4EB047002801D002B09A
S21400323070BD01AA01212940CB00117808308143D6
S21400324019431170012315212000024CA047EEE718
S214003250253100003131000030B583B00C00062364
S2140032606A4628210A4DA8476B465A7812021B78F0
S2140032709B1823806B46DA7812029B789B18638033
S2140032806B465A7912021B799B18A38003B030BD97
S2140032902531000070B582B004000D00012301AA9C
S2140032A00121094EB047002801D002B070BD01AA26
S2140032B0AD0113783F2119402943117001230121E4
S2140032C02000024CA047F0E7253100003131000015
S2140032D010B50A0001230F21014CA04710BDC046BF
S2140032E02531000070B582B004000D00012301AA4C
S2140032F010210A4EB047002801D002B070BD01AAC6
S214003300012129404B001178023081431943117086
S214003310012310212000024CA047EEE725310000D3
S2140033203131000070B582B004000D00012301AAFF
S2140033301721104EB047002801D002B070BD01AA78
S2140033402B0901210B40980013780426B3436E091D
S214003350314009010343102083436D010B431F21B5
S2140033600B401D431570012308392000024CA0476E
S214003370E3E7C046253100003131000070B582B069
S21400338004000D0001236A461821164EB047002897
S21400339001D002B070BDEA0952006B461B780221CC
S2140033A08B4313436A4613700123163120000E4EDA
S2140033B0B0470028EDD1012301AA62212000094E62
S2140033C0B0470028E5D101AA03212940CB00117897
S2140033D01830814319431170012362212000024CEA
S2140033E0A047D6E7253100003131000070B5040053
S2140033F00D000221084B9847002800D070BD02231C
S2140034002A0046212000054DA8470028F6D10021B5
S2140034102000014B9847F1E7953200002531000067
S21400342070B582B004000D000221174B98470028A3
S21400343001D002B070BD012301AA5F212000134E07
S214003440B0470028F5D101AB1B78DB069B0FDAB23C
S214003450012A0FD0002A06D0022A0ED0032A0FD047
S21400346000232B7001E000232B7000212000064B68
S2140034709847DEE701232B70F7E702232B70F4E76B
S21400348003232B70F1E7C04695320000253100007B
S21400349070B582B004000D0001A9384B984700288B
S2140034A042D101A90A78D00793071843530703436C
S2140034B010070343D00618439306184353060343E6
S2140034C0DB0FD20913434A78D107C90F0B43910784
S2140034D0C90F0B435107C90F0B431107C90F0B4305
S2140034E0D106C90F0B439106C90F0B435106C90FEE
S2140034F00B43D2091343DBB2012B17D001236A46D4
S214003500102120001E4EB04700280DD12B016A4620
S21400351012780F2515401D436B461D7001236A4621
S21400352010212000174CA04702B070BD6B46D91C76
S2140035302000154B98470028F6D16B4603331B78BE
S214003540012B0FD0002B09D0022B11D0032BD5D185
S2140035502B1C032D00D80423DDB2CFE7002DCDD1E0
S2140035600125CBE72B1C012D00D80223DDB2C5E7D1
S2140035702B1C022D00D80323DDB2BFE7ED3300007D
S21400358025310000313100002134000070B582B0D2
S21400359004000D0001A9384B9847002842D101A924
S2140035A00A78D007930718435307034310070343CB
S2140035B0D00618439306184353060343DB0FD2097D
S2140035C013434A78D107C90F0B439107C90F0B4322
S2140035D05107C90F0B431107C90F0B43D106C90F7B
S2140035E00B439106C90F0B435106C90F0B43D20973
S2140035F01343DBB2012B17D001236A4611212000AA
S2140036001E4EB04700280DD12B016A4612780F25B2
S21400361015401D436B461D7001236A46112120008C
S214003620174CA04702B070BD6B46D91C2000154B46
S21400363098470028F6D16B4603331B78012B0FD032
S214003640002B09D0022B11D0032BD5D12B1C032D18
S21400365000D80423DDB2CFE7002DCDD10125CBE77E
S2140036602B1C012D00D80223DDB2C5E72B1C022D32
S21400367000D80323DDB2BFE7ED330000253100009C
S214003680313100002134000000487047E801002076
S21400369010B582B06B46DC1D00232370210018484D
S2140036A0184B984723786C2B27D1154C8021200087
S2140036B0154B984701212000144B98470021200005
S2140036C0134B984707212000124B984707212000EC
S2140036D0114B984700212000104B984706212000E8
S2140036E00F4B9847042120000E4B984701212000DD
S2140036F00D4B9847002002B010BD01204042FAE76B
S214003700E8010020D13200007D330000D9310000EE
S21400371019320000913400008D3500005931000048
S2140037209931000025330000E5320000F8B50400AA
S2140037304120235C01252B43235492B200202056BF
S2140037400023124DA847002816DB4123E35CDB0765
S21400375018D5E36E0020022B17D90D4F0D4E4125CC
S2140037600020B847606DB047635DDB070CD5E36E9D
S214003770022BF5D8002008E04122A35C01218B43F0
S214003780A35402E0002000E00020F8BD15CD0000A4
S2140037902DAD0000C1480000502303800023837035
S2140037A0054A02814360C3600133FF330361AE3BC9
S2140037B04361024B83617047204E00000097010072
S2140037C070B504000D00002838D0002939D00B69E8
S2140037D0002B39D04B68002B39D04B69512B39D987
S2140037E0E82200211E4B9847200050301C2229005A
S2140037F01C4B9847E36D002B08D02B89002B11D16A
S2140038000023E366D822A350002070BD2869164B1B
S2140038109847E065002820D04122A35C04210B4392
S214003820A354EAE76868002322001049104DA84711
S214003830A0640028E4DA1C204042E6E71620404256
S214003840E3E716204042E0E716204042DDE7162078
S2140038504042DAE716204042D7E70C204042D4E741
S214003860832B01004D2B0100252B0100853900001C
S2140038704D480000002802D0C16400207047162082
S2140038804042FBE7F0B585B004000E00C023C358E5
S214003890002B02D0C422805898472000B03018224F
S2140038A00021174B9847E36E002B24D10023E356E4
S2140038B09B000025134A9D5020006C306C2200218E
S2140038C00F4FB8472000D83010220021B847E566D1
S2140038D0D823E5504122A35C01218B4301318B4361
S2140038E0A3540196E36C002B03D001AA02312000FA
S2140038F0984705B0F0BD00202056034B9847D5E703
S214003900832B0100C40B002041CE0000F0B587B029
S21400391000900191174C26001C36174F15E0022325
S21400392002AA13804E33EB5A1A021B0A134302AA4A
S2140039305380019B039300202856102202A90F4BA8
S214003940984715E00434B44212D02568002DF9D00B
S214003950691C0098B8470028F4D1EB6E012BF1D112
S214003960019B002BDBD1762149422800044B984767
S21400397007B0F0BDC40B0020BB37010085CC0000AB
S2140039808538000010B5002A04D03E2149421000B8
S214003990014B984710BDC04685380000F0B5DE469E
S2140039A0574680B595B002AF0400EB4610230822B8
S2140039B0BA18D218B14B23CB23C21B681360626EB1
S2140039C0D31DDB08DB006946CB1A9D4602AE002CF1
S2140039D000D1F0E14123E35CDB0700D5EBE1E36EC9
S2140039E0032B04D0042B00D120E1DD46E4E10023C4
S2140039F0CC216350043163500094A14B31002C203D
S214003A000825AC46BC4460449E4DA847C823E35CEA
S214003A10012B00D1A9E0022B00D1AFE0032B00D18F
S214003A20B5E0042B00D1BBE0052B00D1C1E0062B8E
S214003A3000D1C7E0250070352800934B9A4698477A
S214003A40020029002C2308203818C0188F4DA847DC
S214003A500B228F492C2308203818C018A8470C22A0
S214003A608C492C2308203818C018A847A36E7B6002
S214003A701800D047020079682C2308203818C01890
S214003A80A847022284492C2308203818C018A847C3
S214003A90062282492C2308203818C018A847631C21
S214003AA07B601800D047020079682C23082038185D
S214003AB0C018A847022278492C2308203818C018B6
S214003AC0A847182276492C2308203818C018A8477B
S214003AD0132274492C2308203818C018A847172228
S214003AE071492C2308203818C018A8472300B03383
S214003AF0DB68002B7BD0B023E35C002B6BD123006C
S214003B00B0339B68002B72D02200B03250699847C1
S214003B10CC23E050002800DAACE002006349202302
S214003B2008203818C018624B9847102261492C2389
S214003B3008203818C018554DA84720230822BA1860
S214003B40D018514B98470200202308217918C9182D
S214003B500C3308203818C018A84702224E492C23D8
S214003B6008203818C018A84741E0042252492B33D1
S214003B7008203818C018454B98475BE705224F4980
S214003B802A3308203818C018404B984752E70722B7
S214003B904B49293308203818C0183C4B984749E74A
S214003BA004224849283308203818C018374B98474D
S214003BB040E708224449273308203818C018334BFA
S214003BC0984737E705224149263308203818C01899
S214003BD02E4B98472EE701225242CC23E2501D324C
S214003BE03B49A03B08203818C018284B9847D423D8
S214003BF0E558002D0AD02800234B984702002900DC
S214003C002C2308203818C018204B98470222224937
S214003C102C2308203818C0181C4B98472C23082241
S214003C20BA18D0182B4B98470423E366CC23E258E7
S214003C30002A51DB00DCF0E02300B033DD68002D05
S214003C4000D1EAE0D023E3589A4200DDBAE0C02370
S214003C50E358002B02D0C422A05898470223E366FC
S214003C60E36C002B00D1C0E60C22BA18012120001C
S214003C709847BAE60022E250B9E7C046E895010048
S214003C802D370000F94600001B3801004D470000A4
S214003C905C960100689601007CBC010078960100E5
S214003CA0809601009C960100B0960100E8960100FF
S214003CB021370100EC96010028960100309601009D
S214003CC0389601004096010048960100549601007F
S214003CD0C8960100094700002300B033DD68002DB8
S214003CE000D19AE0D023E358626E073A711D200097
S214003CF0B0304069A8470500C343DB171D400A22C1
S214003D0032710D21F170731959719A710F232B407E
S214003D10063205398C46BC446244D35CB370B11C91
S214003D200F2D0DDD711CEB170F2213405B191B11B5
S214003D301340013208208446BC446244D35C73704E
S214003D40FF2D0DDDEA17FF2313405B191B051B0F24
S214003D50102208218C46BC446244D35C3370310088
S214003D60CA1C921B2B1DD21892B20020205600238C
S214003D70304EB047002819DBD022A3585B19A35059
S214003D80002D00D031E6C023E358002B02D00C3AB9
S214003D90A05898470223E366E36C002B00D124E684
S214003DA00C22BA180121200098471EE60521494238
S214003DB02000214B9847DD46BD4613B00CBC92460A
S214003DC09B46F0BD2200B0325069626E3100A847B3
S214003DD0002816DBCC23E5580433E358ED1A854259
S214003DE000DD0500AAB20020205600233100114E47
S214003DF0B04700280BDBD023E25894466544E550D4
S214003E00F3E50521494220000B4B9847EDE50521D7
S214003E1049422000084B9847CDE70223E366E36C4F
S214003E20002B00D1E1E50C22BA18012120009847AA
S214003E30DBE5C04615CD000085380000F0B5D64657
S214003E4000B588B004000F0092460393002800D106
S214003E50D3E0C36E022B00D9D3E007228149380095
S214003E60814B98470726002807D008227F4938004C
S214003E707D4B984746424641F600631CBD190293A7
S214003E8018007B4B9847020029000298764B98470B
S214003E9001902B78002B52D02F2B52D0711C791802
S214003EA000220132A3540D000B78002B02D0013102
S214003EB02F2BF6D1A218002353706378002B00D165
S214003EC0A3E028006A4B98473F2800D9A1E0D423F6
S214003ED0E058002801D0674B98470E9B002B32D045
S214003EE01800654B9847D423E050002800D194E092
S214003EF04122A35C01218B43A354002363642B78E7
S214003F002F2B24D02F227023E2542B78002B24D181
S214003F10039B002B27D02000B03018221900574BE7
S214003F209847C8235246E254E36E012B22D0002B5A
S214003F3027D0022B3AD00B235B4201938DE0002260
S214003F40B8E70022B6E70022D423E250D0E72000EC
S214003F50703029004A4B9847DAE729002000713074
S214003F60474B9847D4E72000B03018220021454B35
S214003F709847D6E7019B002B6FD000212000424BCC
S214003F8098475223E25C531E9A41D2B20121022086
S214003F903E4B98472070002843DB80003C4BC450C3
S214003FA0029D00212026012030270CE0019B002BDB
S214003FB0E3D10333E3662000364B98474DE00029F3
S214003FC001D012E001002A78002A2ED00135130015
S214003FD0B343413B052BF5D93A2A0AD02F2A0AD0FB
S214003FE02E2AECD03A40302AEDD002982A4B984739
S214003FF02FE00100E7E70100E5E716235B420193A7
S2140040002BE010235B42019327E016235B420193CB
S21400401023E05B235B4201931FE00C235B4201938A
S2140040201BE01C235B42019317E0022304AA1380C3
S2140040304E33E35A1A021B0A134304AA538002980B
S214004040164B9847059000202056102204A9144BC2
S21400405098470123E36600230193019808B004BC47
S2140040609246F0BD0C970100293801001497010014
S2140040701B380100392B0100E13701004D2B0100F0
S214004080CF370100832B01008538000005CB0000E8
S214004090C40B00209D39000045CF0000D9CE00009B
S2140040A085CC000010B500280DD0416C026E914200
S2140040B00AD2521A92B2C36D9C466144007840B24E
S2140040C00023044CA04710BD8B214942024B984761
S2140040D0F9E7C046ADCD00008538000070B5050094
S2140040E0C06D6B6C5C1A0419002C02DC00236B6438
S2140040F070BD2200014B98476C64F9E75F2B010006
S214004100F0B5CE4600B584B00700C46D624B994644
S21400411049E021003800614B98470026300004B083
S21400412004BC9146F0BDA11C38005C4B9847FB6C64
S214004130002B0AD0E422B95A002906D0083AB8580B
S214004140002807DB3A6E904210DC0122D823FA5092
S2140041500126E3E701AA1180012191700021E020E9
S21400416039509160023138009847EEE701AA118075
S214004170506000219160E0203950023138009847A5
S214004180E3E720001030464B9847DC23F85009E060
S2140041900132954206D01378202B2BD1F8E7213A2E
S2140041A08933FA50AC1C3F492000C847051EB0D0E2
S2140041B0FB6D7A6C944663449842AAD2022239492F
S2140041C02000394B98470028ADD0102237492000F0
S2140041D0354B98470028D4D0132235492000324B5F
S2140041E09847061E10D1220013329542DAD9E37C96
S2140041F0202BCDD020229343432BD0D0862149427A
S21400420038002C4B984789E70C222B492000264B78
S214004210984700281DD122000C329542C2D9237B34
S214004220202B09D0202293434B2B0CD04122BB5C81
S21400423002218B43BB54B5E701329542B2D01378C6
S214004240202BEFD1F8E72132BB5C02210B43BB5495
S214004250A8E7052219492000134B98470028A1D14A
S214004260200009300E4B9847E423F8520022083B02
S214004270FA506379312B02D8E379302B05D94122E5
S214004280BB5C02210B43BB548CE74122BB5C022182
S2140042908B43BB5486E7C04699380100DD400000DA
S2140042A0D12A01007CBC010029380100EC960100EF
S2140042B0FC9501008538000010960100209601004C
S2140042C0F0B5CE4600B586B00400C56DDC23C358F5
S2140042D0002B69DB026E93422BDC0020626C93425B
S2140042E04EDCE66C002E03D0E422A15A00290ED143
S2140042F00023D822A3500C32A3524133E35C9B0721
S2140043000FD400212000714B9847002038E003AA04
S2140043101180002191705360956002312000B047F3
S214004320E6E7DC23E15869182000694B9847606C83
S21400433026E0426C03920495E0214058844662448D
S2140043406250934220DC0023D822A3500C32A352A2
S214004350E33A03AB1A72E36C002B07D003AE3200CD
S214004360032120009847337A012B03D14123E35CD5
S2140043709B0710D5636CE9182000554B9847002022
S21400438006B004BC9146F0BD002203AB1A72E36C83
S214004390002BEFD0E2E74F484F4B98470021200014
S2140043A04A4B98470020EBE7476C00239946E026E7
S2140043B00AE04123E35C9B071BD5A91C2000444B65
S2140043C09847636C002B73D0A359002B30DB16D1B3
S2140043D0D822A3500C32A352E33A69460A720093DD
S2140043E00193E36C002BE4D06A4603212000984733
S2140043F0DFE700212000354B98470020C0E7BB428E
S214004400DFDC0093019500236A461372E36C002BF1
S21400441002D0032120009847A359991C6918200050
S2140044202B4B9847676CE56D01235B42A351C8E7A9
S2140044300023A351002F04DD2B780A2B1CD1013555
S214004440013FA359226E934239DC002FB9D10122D5
S2140044505242E023E250D0E71A00613A052A18D803
S214004460A2591201D318613BA3510135013F002F19
S21400447020D02B780A2BE2D04A46002AF5D11A0023
S214004480303A092AE8D8A2591201D318303BA35172
S214004490EBE71A00413A052A05D8A2591201D318AB
S2140044A0413BA351E1E73B3B5A425A419146DCE788
S2140044B0002065E7E023E358226E9342C7DD8B2198
S2140044C049422000014B984797E7C04685380000D0
S2140044D0DD400000F89501008536010010B5D823B0
S2140044E0C358002B03D0012B04D0002001E0034B5F
S2140044F0984710BD024B9847FBE7C04601410000B5
S214004500C142000070B50400436C9C46614441649F
S2140045105823C35A002B05D1054D2000A847002874
S214004520FBD170BD816C406D024B9847F4E7C046E6
S214004530DD440000B148000010B584B08000654B33
S214004540C458002C06D0062951D0072900D18AE08D
S214004550052901D004B010BD0123D3561A1E0193BD
S21400456015DBE36C002B03D001AA0021200098473E
S2140045700323E3665533E25AA16C606D564B9847A9
S2140045802000564B98472000554B9847E2E70E33DD
S214004590D9B20E291ED88B005249CB589F4602210D
S2140045A049421DE0702149421AE00C21494217E0B9
S2140045B01621494214E00C21494211E07921494272
S2140045C00EE0682149420BE00B21494208E0102129
S2140045D0494205E0002A07DB002101E005214942A7
S2140045E02000414B9847B5E705214942F8E70423E8
S2140045F0D15E002906DD20003C4B98472000374B53
S2140046009847A7E70B000E339AB20E2A1ED89300DF
S214004610374AD3589F46022149421DE0702149423D
S2140046201AE00C21494217E01621494214E00C21F9
S214004630494211E0792149420EE0682149420BE0E7
S2140046400B21494208E01021494205E0002907DB1A
S214004650002101E0052149422000234B9847CDE781
S21400466005214942F8E70023D35E002B08DB200033
S2140046701B4B98474122A35C01218B43A35469E757
S2140046800E339AB20D2A1ED893001A4AD3589F4664
S2140046900221494219E07021494216E00C214942A4
S2140046A013E01621494210E00C2149420DE0792121
S2140046B049420AE06821494207E00B21494204E0EA
S2140046C01021494201E0052149422000064B984747
S2140046D0D0E7C046C40B002085480000A540000077
S2140046E09D3900003895010085380000054500001A
S2140046F074950100B09501000260016100224260DD
S2140047008360009BC360704710B504004268002AAF
S21400471000D110BD0169C068A36898470023636094
S214004720F7E7000070B504000D00036842689B1AA6
S214004730002B05DD22696368591C6160D55470BD85
S214004740014B9847F6E7C04609470000F8B5060053
S2140047500C00002A08D08D18044F00216156300046
S214004760B8470134A542F8D1F8BDC0462547000039
S214004770024A1368013313607047C046E00B0020FE
S214004780642343800023037043707047F0B5C64629
S21400479000B5ACB00D006E461D4B6A4692CB92C279
S2140047A06B884365143004002B789B0099591700DA
S2140047B01000184B98470020174B9847174B1B7A4A
S2140047C0DBB2D84080466988FA200002144B98472E
S2140047D001004046134B984778600523FB722B7800
S2140047E09B0099593A0020000F4B98476A78083288
S2140047F0D2B20E4920000E4B984769780831C9B2EC
S21400480020000C4B98472CB004BC9046F0BDC04628
S214004810209701003DED000069EA0000000400401A
S214004820295901001558010089EE00007147000063
S21400483095F20000ADF20000426902219368194229
S214004840FCD1136802210B431360704770B5040057
S2140048500578E80702D50120404270BD6160290056
S214004860022081432170A260616D1800044B9847B6
S214004870E06023780122134323700020EDE7C04652
S2140048801558010070B58B005D18AD00295C022636
S214004890314329544419416D1000034B9847034B8C
S2140048A01B68C018206170BD15580100E00B002081
S2140048B08B00591889000B5C022293430B547047F7
S2140048C070B504000378DB0707D503789B0704D58B
S2140048D0104B1A6803699B1A00D470BD03785B07F7
S2140048E0FBD4037804210B430370C368002B0BD062
S2140048F0D2180261A268002120006568A8472378C4
S214004900042293432370E8E7027802218A43027068
S214004910F0E7C046E00B002030B591B0274C1123DD
S214004920237000236370A37001A901224A708B7064
S2140049300A701120224B98472278D10900230029BB
S21400494004D15309DB011F498C4663441F211140E3
S214004950012210008840986102AC22700025039561
S21400496025746574A27425752423E5540B32002142
S21400497008A8154B984798235B03E360134BA36284
S214004980134BE36201235B422363124B6363124BB8
S214004990A36180235B05A360E574104D22001049D7
S2140049A02800104B98472A68D369002BFCD113685F
S2140049B002210B43136011B030BDC046F401002045
S2140049C075D3000000440041832B01000300220041
S2140049D0030023000200150040420F004847002055
S2140049E0001C00429DDA000001680722CB691A42CB
S2140049F0FCD17047F0B5D6464F464646C0B58AB09D
S214004A0006000F00140031600800A04B9847A04A2B
S214004A10116A851C0123AB400B43136209A9237B53
S214004A200B701430C5B228009A4B984728009A4B52
S214004A309847207B0021994B98473B681C209B0792
S214004A4005D50AB01CBC90469946A246F0BD3B6808
S214004A501738DB07F5D430688C4B99469847050025
S214004A608F49904B9847AD008F4BEE50002333761E
S214004A70737600257383B3832522B55433621433CB
S214004A803B60336898461800C8478146802308AACA
S214004A901370557001239370D570E069276A00285B
S214004AA000D1AFE008AB1870022308AA5370000CC0
S214004AB0C0B211007D4B9847002F00D1A7E008AB8D
S214004AC01F70022308AA53703F0CF8B21100774BF0
S214004AD09847A38AF380E38A3381237E8022002BC3
S214004AE004D1734B9B789B07DB0FDA01A16823691F
S214004AF00B4313432422A25C002A02D08022D20554
S214004B001343A26A13432C22A25C002A03D18022FC
S214004B109204914202D18022120513432D22A25CF8
S214004B20002A02D08022120413432E22A25C002AFE
S214004B3002D08022D20313434246126813434246F1
S214004B40136080235B00536048461430C0B2594B54
S214004B5098470790FA239B0022685A439146636859
S214004B609A46554DA847009001914B465800A847D5
S214004B7002900391208EA847049005914F4F504A0B
S214004B80504B00980199B84702000B00049805990D
S214004B90B8474D4E00224D4BB0470490059148460D
S214004BA0A84702000B0004980599B84702000B00BE
S214004BB0474D00980199A847029A039BB0470022E8
S214004BC0444BA847029A039B434DA847434B98473C
S214004BD0050080239B04A2689A421ED00300402052
S214004BE0FF2D00D92DE700240020FF251D402406B8
S214004BF025430004FF231B04184005434346DD609D
S214004C0000201EE700214046354B98474AE7012121
S214004C104046334B9847070051E7FA26B6005346FE
S214004C205E430098019902000B00274CA0470090B5
S214004C3001913000204B984700222A4BB8470200CB
S214004C400B0000980199244CA0470022214B204CD1
S214004C50A047224B9847041E0CD031000798224BE1
S214004C6098470238001B2B00FF2D0CD8FF28BCD914
S214004C704020E6E67100481E079B9C4660441A4B9F
S214004C8098470138EFE74020DBE6C04611D9000020
S214004C900004004081EB0000F5EA00004DD700005C
S214004CA0611400004DD90000245D0020A9EC00002E
S214004CB0002000419DEB0000F9830100A177010070
S214004CC095D626E80B2E113E1969010000002440F7
S214004CD0A17C01000000F03F396F01000D83010048
S214004CE099D700000000084015580100F8B5CE46D8
S214004CF0474680B5040003689946144EB0472568B9
S214004D002800134B984698471F2318400127390060
S214004D10814061330F4AD1502000B04783232B7562
S214004D202B762B68022293432B600B4B9847206808
S214004D30C0470A4B98470A4B98472000B0474B4657
S214004D401F600CBC90469946F8BDC046E949000075
S214004D5089D9000000E100E0FDD00000D1EB0000A2
S214004D603DD1000003681A7E920707D502221A7604
S214004D705B8B9B074120DB17184070475A8B520706
S214004D8006D55968C02292020A435A601820F4E7F2
S214004D900020F2E730B50268002301240225117EC8
S214004DA021420BD1117E294206D101339BB20189E3
S214004DB09942F4D8122002E0002000E0002030BD26
S214004DC010B5046862688023DB0213436360616287
S214004DD0024B98470123237610BDC046954D000030
S214004DE070B58000164BC45823689D7B227E637E78
S214004DF013401D40EB0706D4AB070BD4EB0610D4CC
S214004E00AB0615D470BD2000A3689847012322681E
S214004E109373F1E72000E3689847022322689373B0
S214004E20ECE7200023699847102322689373E7E78E
S214004E30200063699847236820229A73E2E7C046F9
S214004E405447002010B50020014B984710BDC046BF
S214004E50E14D000010B50120014B984710BDC0463B
S214004E60E14D000010B50220014B984710BDC0462A
S214004E70E14D000070B50A00094B1B68002B0AD0F4
S214004E80074C25682B685968064B98476868206069
S214004E90431E984170BD0449014B1960F0E7C046B7
S214004EA0E80B00204B380100FC01002070B5051E01
S214004EB006D008200A4B9847041E03D172B6FEE7B8
S214004EC072B6FEE7074B9847256000236360064BE3
S214004ED01A6854601C60054B9847012070BDC04698
S214004EE05563000091620000F8010020A9620000EE
S214004EF0F0B5DE4657464E464546E0B583B006005A
S214004F0000910192394B1B68002B11D01B689B68DF
S214004F103200019900989847002802D10022334BAE
S214004F201A6003B03CBC90469946A246AB46F0BD1C
S214004F302F4C2E4B1C602F4B9946202398462E4B09
S214004F409B462A4B9A460AE0020029003000D847C2
S214004F5000280DD0646853461C60002C3ED027689D
S214004F603D682800C847335C42469343F2D1EBE7DE
S214004F703F7B7FB2002F2DDB3378002B28D032000A
S214004F8000250021012408E001290AD001356DB270
S214004F90210001321378002B05D0202BF4D001001D
S214004FA0F7E72100F5E701290FD0104B1B68002B0F
S214004FB014D0AF42AAD0019A10490098104B9847D7
S214004FC000220A4B1A600020ABE7013D6DB2ECE709
S214004FD00025EAE7054B1B68002B97D1019A094983
S214004FE00098074B984700209BE7C046E40B00203C
S214004FF0FC0100201B380100293801002C97010015
S2140050004B3801008497010010B5014B984710BD3E
S2140050104575000010B5024B984780B210BDC046DB
S2140050209581000010B5024B9847000C10BDC04695
S2140050309581000070B504000D00044B9847010CE4
S214005040090429432000024B984770BD9581000053
S214005050A181000070B504000D00054B98470104BF
S214005060090C2D0429432000024B984770BDC0460A
S21400507095810000A181000010B5024B984780B2D0
S21400508010BDC0463D75000010B5024B9847000C99
S21400509010BDC0463D75000070B504000D00044B01
S2140050A09847010C090429432000024B984770BD1D
S2140050B03D7500004175000070B504000D00054BFD
S2140050C098470104090C2D0429432000024B9847F9
S2140050D070BDC0463D7500004175000010B5014B1F
S2140050E0984710BDA981000010B50400094B9847E9
S2140050F0012C04D0022C05D0002C07D110BD064B85
S2140051009847FBE70548064B9847F7E70548044BE2
S2140051109847F3E70D530000ED600000409B010048
S214005120E5540000809B010010B52F4B1B68092238
S214005130DA65013264215A5401315A5401315A5405
S214005140053201315A546239682019540130195415
S2140051500130195401301954013019546B315A5426
S21400516001315A5401315A5401315A5401315A54BA
S21400517001315A5401315A5401315A5401315A54AA
S21400518068396D32995401329954013299546B3A08
S21400519013301A54112401301C5401301954723142
S2140051A05A5401315A5401315A54002175329952D9
S2140051B0A03102329952A03102329952A031023205
S2140051C099520A49023299520949023299520949BA
S2140051D0023299520849023299525F31023299528C
S2140051E0064A1A6610BDC046EC0B0020FD02000001
S2140051F052030000A203000001040000BF040000E8
S214005200174B00225A821A800A329A825A800A3231
S214005210DA829A800A321A83DA800F325A831A8127
S21400522005329A835A810532DA839A8105321A84C6
S214005230DA8105325A841A82383A9A840A32DA8433
S2140052400A321A850F325A8505329A850532DA8572
S21400525005321A8605325A8605329A867047C04647
S214005260080C0020082813D880000B4B1B589F46BC
S2140052700A4810E00A480EE00A480CE00A480AE02D
S2140052800A4808E00A4806E00A4804E00A4802E03D
S2140052900A4800E00A4870471C98010088980100F8
S2140052A0D09801002499010070990100BC99010072
S2140052B0089A01005C9A0100B49A0100109B010054
S2140052C04098010010B5002A0DD00B7803700B78BB
S2140052D0002B08D0002301339A4204D0CC5CC4547F
S2140052E0CC5C002CF7D110BD10B5064B1B68002B0C
S2140052F001D000221A63044B1B68002B00D098478D
S21400530010BDC046EC0B0020B40C0020F8B5DE46FD
S21400531057464E464546E0B5514B1B68002B00D11C
S21400532099E01B78012B00D18FE04E4B1A684E4B4C
S2140053301A604B4C4D4D2A00002120684C4B984774
S21400534023684C4A9A8105229A730022DA731D61FB
S214005350C82149009961484959659A655A63474B7F
S21400536098472068464A474BC250C82292000433EA
S214005370C250454B0122C250444A91231B01C250E1
S214005380434B9C46604450224249434B984723680F
S2140053904249434A99500A21424A99540131424AA5
S2140053A099540131414A99540131414A9954013284
S2140053B06431995472253F4A9D5473263E4A9E5442
S2140053C074273E4A9F54F12290463D4A41469954DE
S2140053D0F22291463B4A49469954F32292463A4A6B
S2140053E051469954F4229346384A59469954384BB4
S2140053F0984723685A46DA7252469A724A465A7252
S21400540042461A72DF719E715D7171221A71042212
S214005410DA70032322689370013B22685370236876
S21400542001221A702B4B196800290ED00C4C2368E9
S214005430174A9446634418005022174B9847226830
S2140054400121254BD150254B98473CBC90469946A8
S214005450A246AB46F8BD224A014B1A6065E7C04635
S214005460EC0B002018E000E018570020B80F0000F2
S214005470832B0100A11A0000F0F0F0F02951000083
S214005480F1F1F1F15C05000064050000F2F2F2F2C1
S21400549014090000809D0100C5520000F3F3F3F3E9
S2140054A064090000AC0F0000AD0F0000AE0F000056
S2140054B0AF0F0000B10F0000B20F0000B30F0000E6
S2140054C0B40F0000B50F0000B60F0000B70F0000C5
S2140054D001520000A40C00200C090000E952000054
S2140054E06047002010B504000E4B1B68002B01D04F
S2140054F00D4B98470D4B1B68002B00D010BD0B4B77
S2140055001C60084B18680028F8D0094B9C4660447D
S21400551050222100074B9847024B1A680121064B80
S214005520D150EBE7EC0B0020E9520000A40C002061
S21400553014090000C55200000C09000010B50B4B02
S2140055401868036B002B0FD0C3699022FF3293427A
S21400555005D89B00064A94466344C01810BD05480B
S214005560054B98470020F9E70020F7E7EC0B0020F2
S21400557068090000949D0100E5540000F0B5C64699
S21400558000B5002806D007000025002805D0234BCC
S21400559098460AE02248234B984704BC9046F0BD44
S2140055A0012A20D00135BD42F7D243461C68E36984
S2140055B0EB189E00A2191C498C4662441278110012
S2140055C06731C9B20E29EBD86832D2B2D318A169B6
S2140055D08B42E7D2013292006346F0182018002171
S2140055E0124B9847DEE70133A269934207D20E4B6F
S2140055F0F0182018082200210C4B9847D2E70A4BD7
S214005600E01804220021094B9847074BF018201891
S21400561004220021054B9847C4E7C046EC0B002047
S214005620B49B0100E554000068090000832B0100CC
S21400563010B50B4B1B681A6B002A10D05A69013242
S2140056405A61DA690132DA619021FF318A4203D960
S21400565001221A620022DA610120024B984710BD2F
S214005660EC0B00207D55000070B504000D00FF28EF
S21400567002D00D4B984203D1AC4205D3280070BD32
S2140056800A480B4B9847F9E70A4B9847002809D079
S214005690012303702B00A3431A0A42701B0C43809D
S2140056A0054B98472540E9E7FFFF0000B89C01003E
S2140056B0E55400003D5500003156000010B508299D
S2140056C014D8002817D00E4B1A68531864331B786A
S2140056D0834210D353187C331B780138584340312B
S2140056E0490051180B89C01880B208E00548064BDF
S2140056F09847002003E00548034B9847002010BD5C
S214005700EC0B002048A30100E554000088A301002C
S21400571010B50B0001001800044B9847044B1B689B
S21400572018189C300123037010BDC046BD560000FB
S214005730EC0B002070B5040008001500082C13D8E8
S2140057400D4B1B681B1964331B788B4210D321004A
S2140057500A4B9847084B1B681C19703422781B1894
S2140057609B189D331D7070BD0548064B9847FAE799
S2140057700548044B9847F6E7EC0B0020BD560000A2
S214005780D09E0100E55400001C9F010010B50400E7
S2140057900800082C13D80F4B1B681B1964331B78A2
S2140057A08B4211D321000C4B98470A4B1B681C19DF
S2140057B0703422781B189B189D33187810BD074844
S2140057C0074B98470020F9E70648054B9847002006
S2140057D0F4E7C046EC0B0020BD560000F49C010028
S2140057E0E5540000409D010070B504000800150057
S2140057F0082C13D80D4B1B681B1964331B788B427F
S21400580010D321000A4B9847084B1B681C197034AC
S21400581022781B189B189C331D7070BD0548064BDC
S2140058209847FAE70548044B9847F6E7EC0B002044
S214005830BD560000509E0100E5540000949E0100F5
S21400584010B50B4B1A686723D35C83420CD3032135
S214005850084B9847064B1B6873229A5C1B189B18CC
S2140058609C3300221A7010BD0348044B9847FAE791
S214005870EC0B0020BD5600005C9F0100E5540000C4
S21400588070B52D4B1B68002B46D0082849D8EFF37F
S2140058901084012383F31088284A136801331360A9
S2140058A0274A43009B5AD21848321278002A0AD157
S2140058B02349CD1848355A1C060008367600891943
S2140058C04988521A2A700100103149001C4A5218A1
