S0160000455345353136204D41494E2046572E7372656393
S1130000086F0020D5840000B9840000B984000082
S113001000000000000000000000000000000000DC
S113002000000000000000000000000095420000F5
S1130030000000000000000071430000B543000010
S1130040B9840000B9840000B98400003D6E00004A
S1130050416D0000B9840000B9840000B984000037
S1130060B98400006572000075720000857200009A
S113007095720000A5720000B5720000898400002A
S113008099840000A9840000D12E0000E12E000014
S1130090F12E00000000000000000000B984000000
S11300A0B9840000B9840000B9840000B984000058
S11300B00000000010B5064C2378002B07D1054B37
S11300C0002B02D0044800E000BF0123237010BDC0
S11300D07002002000000000C0EF0000084B10B5C3
S11300E0002B03D00749084800E000BF0748036815
S11300F0002B00D110BD064B002BFBD09847F9E72D
S11301000000000074020020C0EF0000C0EF0000F7
S113011000000000044B00229A81044999602820C1
S113012018705960DA817047C43800208C020020AE
S113013010B5014B984710BD1501000000B583B000
S11301406B460022DA710733074828320270233ADB
S11301508281064A826043600123C381FA218900B7
S1130160034B984703B000BDC43800208C02002024
S1130170C121000010B5054C2000054B9847637859
S11301800F2018400002A378184310BD8C020020F1
S11301903D010000F0B5CE4600B582B0264B98472D
S11301A00400264B1F780921012F03D000230026C9
S11301B0234D04E00431F9E701338B4205DA9A0058
S11301C052599442F8DD1E00F6E79A23FF339C420D
S11301D02CDD1C4B9C4203DD002F29D0012F29D09C
S11301E0741C174B9946B600F558174FF3590093F2
S11301F0401B164EB0470190A4004A46A058401B2D
S1130200B047011C0198124B9847061C009D291CFD
S1130210E059104B9847011C301C0F4B9847291C80
S11302200E4B984702B004BC9146F0BD0020F9E79C
S11302300B48F7E70B48F5E7750100009102002031
S113024034000020650E00000000002029BC0000DE
S113025091B20000B1B8000071B600006DAF0000AB
S1130260295CE7400000704101680722CB691A420B
S1130270FCD1704770B5040006683268458B838BE7
S1130280ED1AADB2838B013B9BB2838313011DD561
S1130290C37A002B03D0838B9BB2012B10D0A38B8A
S11302A09BB2002B02D1A37A002B1CD12000124B4D
S11302B09847236A5D192823F35CDBB22B7070BD69
S11302C072688023DB0213437360E8E7C37A002B70
S11302D0E5D0838B9BB2002BE1D172688023DB02D3
S11302E013437360DBE72000034B98477268C02315
S11302F09B0213437360D9E76902000070B50400E0
S113030005686B8B5B0703D51E222523C25470BD81
S1130310468B838BF61AB6B2838B013B9BB28383E5
S1130320044B9847236A9E193378DBB22822AB54D6
S1130330EDE7C0466902000070B505000C000668D0
S11303404B7A002B1AD17368134A134073606368A5
S11303502B626388AB8300222423EA5405320133E1
S1130360EA54223BB375237A002B0BD123885B001C
S1130370627A920313437362002070BD897A074B3B
S11303809847E0E723885B00627A92031343802254
S1130390120213437362EFE7FFFFFBFF4D2E0000D1
S11303A0F8B505000C0006684B6803624B8883832C
S11303B001222423C25404320133C25437683F015A
S11303C0FF0F4B7A002B17D1002F02D06388012B2B
S11303D016D07368204A13407360237A002B15D11A
S11303E00323B37523885B00627A920313430122CB
S11303F0134373620020F8BD897A184B9847E3E7EA
S113040072688023DB0213437360E6E723885B0092
S1130410627A920313438022120213437362280008
S11304200F4B984773680C4A134073600028E2D15D
S113043028000C4B98470028DDD10323B37523888B
S11304401B0A782213435B00627A920301210A4358
S113045013437362CFE7C046FFFFFBFF4D2E00003E
S1130460212E0000F12D0000931C9B00C31859603D
S1130470037E012191400B43DBB2037670470000F9
S113048010B5838B9BB20522002B01D0100010BD48
S113049001338372C372024B98470200F6E7C046E9
S11304A0A103000010B5838B9BB20522002B01D061
S11304B0100010BD01338372C372024B98470200CF
S11304C0F6E7C0463903000070B58000754BC45888
S11304D025682B681B01DA0F637E267E1E40638B22
S11304E09BB2002B03D1A38B9BB2002B23D1638B34
S11304F09BB2002B08D0A38B9BB2002B04D12533D5
S1130500E35C052B00D16DE0638B9BB2002B24D000
S1130510A38B9BB2002B20D06B8B9B0600D581E074
S1130520002A04D0A38B9BB2012B00D17AE0412294
S11305302523E25411E02B7EDB0707D501232B761C
S11305406B8B9B072ED541222523E254A38B9BB2B0
S113055063832523E35C052B38D0638B9BB2002B8C
S113056007D0A38B9BB2002B03D12533E35C052B6F
S113057064D02523E35C052B13D02523E35C002BF7
S11305800FD003232B7500236383A3832533E35CFC
S1130590412B03D0A37A002B00D075E0730700D55C
S11305A07BE070BD6B8B5B07D0D518222523E2540A
S11305B00023A383A37A002BC8D020003A4B98478A
S11305C06A68C0239B0213436B60BFE71F33E35C7D
S11305D0002B03D02000354B9847BEE72000344B56
S11305E09847BAE71F33E35C002B00D08CE7033352
S11305F02B750023638325330022E254A37A002B56
S113060007D101232B76F307A7D5E3682000984789
S1130610A3E72000244B98476A68C0239B02134336
S11306206B60F0E72423E35C002B03D12000204B14
S1130630984792E720001D4B98478EE71F33E35CF1
S1130640012B96D12B7E9B0701D502232B76032306
S11306502B750023638325330022E254B30703D5AB
S11306602423E35C012B0BD0F30700D481E724237C
S1130670E35C002B00D07CE7E3682000984778E730
S113068023692000984774E72000074B98476A685D
S1130690E023DB0213436B6080E763692000984723
S11306A07FE7C046444E0020690200007502000046
S11306B0FD020000F0B583B00D00214CA047071CDB
S11306C0E88BA047061C1F4CDC218905381CA04779
S11306D00190E42189050096301CA047011C1A4EA4
S11306E00198B0470190E2218905381CA047071CF6
S11306F0EA2189050098A047011C381CB047061C54
S11307002023E85E114FB847011C301CA047061C8B
S11307102223E856B8478321C905A047071C01983E
S1130720011CA047011C381CA047011C301C084BAD
S11307309847A8630749084B984703B0F0BDC046E3
S1130740C9BC000071B60000B1B8000029BC0000AB
S11307506DAF00000000A04591B20000F0B5CE4698
S113076000B584B0029089465E4FFC2189054B4652
S1130770986BB8475C495D4B9847041C28234A464C
S1130780D0565B4EB047211CB847211CB847E22124
S11307908905B847051C4B462620185EB047211C26
S11307A0B847011C534E281CB047D8218905B847C7
S11307B0E0218905B847FE218905B047051C4B4651
S11307C0988C4D4B9847291CB84701904B4B984740
S11307D0002800D183E02E234A46D056444DA84732
S11307E03E00DC218905B847071C211C201CB047AA
S11307F0011C381CB047071C4A462C20105EA84731
S1130800211CB0473B4C011CA047391CA047FA21CE
S11308108905B04703900298374B9847011C334F22
S11308209320C005B84702904A462A20105EA84784
S11308308F21C905B0470399A047E6218905B04730
S1130840011C0298B8472E49B04701992D4B98478F
S1130850071CEE218905B04701904A463220105EFC
S1130860A847391CB047391CB047C0218905B04797
S113087002904A463020105EA847E0218905B0471F
S1130880391CB047011C0298A047029034234A4601
S1130890D05CA847DC218905B0470390019B191C53
S11308A0181CB0470199B047011C0398B047011CBC
S11308B00298A04701902F234A46D056A847862184
S11308C0C905B047011C0198A047F6218905B04726
S11308D0011C381CA04704B004BC9146F0BD0020A4
S11308E0F9E7C04671B6000000007A47B1B80000CD
S11308F029BC00006DAF0000C9BC0000E9BB0000CA
S11309000050C34591B20000F0B5CE4600B584B0A6
S113091001900D003A49A86B3A4B9847061C1520E4
S11309202856394B99469847384CE2218905A04707
S11309300096311CA047364EFE218905B047071C9E
S113094016202856C847D6218905A0470099A047F4
S11309500099A047011C381CB0470290688A2D4FAB
S1130960B847DA218905A047011C0298A0470290E4
S11309700198B847019014202856C847FC218905DE
S1130980A0470099A0470390288AB8478321C90546
S1130990A047011C0398B047011C01981E4B9847BF
S11309A0011C0298A047019018202856C847D4215A
S11309B08905A0470099A0470090E87DB847E22147
S11309C08905A047011C0098B047019D291CA04738
S11309D0291CA047291CB047041C1049104B9847F8
S11309E0002807D10021201C0E4B9847002802D074
S11309F0002400E0094C201C04B004BC9146F0BD66
S1130A000000A04591B2000029BC000071B60000AE
S1130A106DAF0000C9BC0000B1B800000000C842BE
S1130A20C1AE000099AE0000F0B5DE4657464E4612
S1130A30C0B5A2B004008946160012AB9B46294DEE
S1130A40402229001800284FB8472900403140228D
S1130A5002A8B847254F2000B8478821C905244B70
S1130A60984700903E23F056224B9847224C234946
S1130A70A047234E2349B04701904B469B009A461A
S1130A80214D22495B465246D058A847FE2189058C
S1130A90B047011C0198A047011C0098A847FE21FB
S1130AA08905B0470090194902AB5246D058A8476F
S1130AB0FE218905B0471649A047061C01204B4674
S1130AC09840B847011C301CA047011C0098A0475F
S1130AD0011CFE208005A84722B01CBC91469A4602
S1130AE0A346F0BD88D9000045880000C9BC0000B9
S1130AF0B1B8000029BC000071B600000000A0409D
S1130B006DAF00000080A74491B200000000C8420D
S1130B10BD370634F0B5CE4600B582B004000D00F2
S1130B201A23C85E334B9847334EE0218905B047FA
S1130B303249B0473249334B9847061C201CC8231E
S1130B405B009C4201D9304B188880B22F4FB847C4
S1130B50011C294C301CA0472A4EFE218905B047B0
S1130B60009019202856234B99469847F621890569
S1130B70A0472749B047011C0098A04700901C20BB
S1130B802856C847EA218905A04701900E20285617
S1130B90C847011C0198A047011C0098B047009069
S1130BA03C23E85CB8478121C905B047011C194FB3
S1130BB08120C005B847011C0098A04700903D2340
S1130BC0E856C8471449A047FE218905B047011CCF
S1130BD0FE208005B847011C0098A0470F49104B20
S1130BE098471049A047104B9847C0B202B004BCC4
S1130BF09146F0BD29BC000071B600006F12033AA3
S1130C0075021A3B6DAF000084D90000C9BC000016
S1130C100000444291B200006F12033B0000C8413F
S1130C20B1B800009A9959403DAF000000280AD09D
S1130C30036C002B0AD0436C002B0AD0836C5842FF
S1130C4058414042704701204042FBE701204042A6
S1130C50F8E701204042F5E730B583B004000D0009
S1130C600800184B9847002814D163B2DB43DB0F0C
S1130C701B016A7B9A420DD06B736B680122694633
S1130C800731F3302C6CA0474C23E854002803D0E0
S1130C900220404203B030BD6B46D91D6A7B10234D
S1130CA013400A781020824313430B706B680122AF
S1130CB063306C6CA0474C22A8540028EAD0022070
S1130CC04042E7E72D0C000030B583B004000D4B23
S1130CD09847002801D003B030BD636801226946FB
S1130CE00731F330256CA8474C22A054002805D1C5
S1130CF06B46DA79102313406373ECE70220404219
S1130D00E9E7C0462D0C000070B504000E00150084
S1130D1010000B4B9847002C0BD000280CD12378E3
S1130D20B34205D926704D22AB5C01210B43AB5471
S1130D3070BD01204042FBE701204042F8E7C04675
S1130D402D0C000070B582B00E0015000C4B9A817A
S1130D500C4C9C606A46D07107325A600122DA81D9
S1130D6076321A70FA22920000211800064B984736
S1130D702A0021003000054B9847002002B070BDC6
S1130D80D4380020E4380020812200004588000087
S1130D9070B50A4C0023A381531CE381084BA36064
S1130DA06360772525701870581C064B9847FA2104
S1130DB089002000044B9847002070BDD4380020DF
S1130DC0E4380020458800002122000010B5074BBC
S1130DD098470749074B9847074B9847FA218900DA
S1130DE04843064B9847064B984710BDC9BC0000C2
S1130DF000007A4491B200003DAF00000DAB00004A
S1130E00595D0000F0B5DE4657464E464546E0B50E
S1130E1087B081468A4690461F001422002101A80B
S1130E202E4B984738002E4B9847002849D14B4603
S1130E30002B49D05346002B49D04346013B092B94
S1130E4048D84346002B2BD00025002401AE16E0E1
S1130E50AB46CB445B4618783900224B9847630075
S1130E605A4612787F210A409A556300F318524675
S1130E70525D5A700134A4B22500A04507D93B7BCA
S1130E80002BE5D063004A46525D9A55EDE70028F1
S1130E9006D007B03CBC90469946A246AB46F0BD8E
S1130EA043465A00013A01AB18787B68694605311C
S1130EB07C6CA0474C22B8540028EAD0022040425F
S1130EC0E7E701204042E4E701204042E1E7012056
S1130ED04042DEE704204042DBE7C046578800007A
S1130EE02D0C0000590C0000F0B583B006000D0075
S1130EF001921F001800144B9847041E1DD1002DA9
S1130F001ED03B7B002B0CD07B68019A290030005B
S1130F103D6CA8474C23F85400280BD1200003B0A3
S1130F20F0BD39003000094B9847041EECD18023F2
S1130F301E43E9E702246442F0E701246442EDE73A
S1130F4001246442EAE7C0462D0C0000590C00005D
S1130F5030B583B00500E0226B46DA712A3A6B465D
S1130F609A71124B9847041E1DD12B7B002B15D070
S1130F702B00012269460631684607300C4CA04715
S1130F80041E10D169680B48AB6C98472B7B002B6F
S1130F9009D12800084B9847040004E02800064BB8
S1130FA09847041EE4D0200003B030BD2D0C00008F
S1130FB0050E000010270000C90C000070B58CB0AD
S1130FC00400524B9847230001222100D020504DA9
S1130FD0A847051E18D12378612B00D093E001A9FE
S1130FE000230B7023000122F020494EB047061E57
S1130FF00AD101A90B78A360230017228A20444D4B
S1131000A847002803D0350028000CB070BD230089
S11310100E221B216944E1303D4DA8470028F2D13E
S11310202300052229216944394DA8470028EAD123
S113103001AB2022995C0902DA7F0A43E2835978E2
S113104009021A780A43228422259A78625559792A
S113105009021A790A43A284D97909029A790A43BE
S1131060E284197A2822A154D97A09029A7A0A4385
S11310706285597B09021A7B0A43A285D97B2E22F9
S1131080A154997B0132A154D97C09029A7C0A4368
S11310902286597D09021A7D0A436286997D34228B
S11310A0A1541A7E587E00010F2111400143218270
S11310B0D97D090112090A4362829A7E2275DA7E79
S11310C062751A7FA2755A7FE2759A7F227623226F
S11310D09A5C6276595D090221229A5C0A43628312
S11310E024229A5C227727229A5C9206920F3C2152
S11310F062542522995C1832A154143A9B561B1150
S11311001532A3547FE703256D427DE7510F00009C
S1131110E90E0000F0B5CE46474680B583B081465F
S11311200E0074226B469A716B46DD1D1B4F1C4BDF
S113113098460FE0032293432B703300023A2900B0
S113114068460630C047040071681648B36C984777
S1131150002C1CD13300012229007420B847041E3E
S113116015D12B789A07E5D14B46002B0FD06B464F
S1131170D91D0B78032293434846024013430B7056
S11311803300012268460630054CA04704002000C5
S113119003B00CBC90469946F0BDC046E90E000071
S11311A0050E00001027000070B582B0041E0DD09B
S11311B06B46DD1D0B00012229007420054EB0474B
S11311C02A7803231340237002B070BD01204042EB
S11311D0FAE7C046E90E000070B584B005000C00C3
S11311E04B4B1A6802921A7902AB1A71052200213C
S11311F06846484B984721000F206844464B98475F
S113120000280ED0002D00D17FE000280DD00F2340
S11312106B441B78002B02D0002800D170E004B08E
S113122070BD21003D4B9847ECE702AB18782300D2
S1131230052269463A4EB04700224D23E254002865
S11312403FD00028EBD1281D22000821354B9847B8
S11312500028DCD1EA7892001C261C3002406B4640
S11312601979B143114349B2DA781F2313406A78DC
S113127052011343B343AA789200104003436A46D1
S1131280D3705378072293432878024013436A4665
S113129053702879082830D000251F220A404001C5
S11312A002436B461A711A787F231340ED012B43D6
S11312B06A46137023000522694602A81A4DA847FE
S11312C0A5E7E81C22000721164B98470028BFD148
S11312D0681C22000521134B98470028B1D1A81C93
S11312E0220005210F4B9847002800D08FE72200E9
S11312F0052128000B4B9847A3E701250020CCE7E4
S113130021001800054B984789E7012040427EE7F9
S113131008DA000057880000A91100001511000028
S1131320E90E0000090D0000050E0000F0B5DE46D0
S113133057464E464546E0B5B1B00500894692464B
S113134098460C2200212DA8DB4EB0471BAC482246
S113135000212000B0472D9421AB2E9327AB2F936F
S11313604046D64B9847002800D0E3E14B46002B7B
S113137000D1E3E1012D13D0023D012D00D8A9E0F5
S11313800025012300935346002B00D1DAE11D70A0
S1131390009831B03CBC90469946A246AB46F0BD9D
S11313A00EAC112200212000C34B98474346112262
S11313B021001D20C24EB047009023787F221F00D9
S11313C097434A4617700F210B405370637893700C
S11313D0A6783603E3781B011E4323791B091E43B9
S11313E060790003A3791B011843E3791B091843AF
S11313F00190237A1B02627A1A430292A37B627BD6
S11314009200980910430390E27B9346247C194090
S1131410049142469268012A32D05BB220221A40DB
S11314201743102213401F434B461F704146019837
S1131430A44B98474B46986041463000A24B9847CE
S11314404B46D86041460298A04B98474B461861DA
S113145043469B68012B1DD04246049903989C4B3C
S113146098474B465861009B002B00D060E14B46E7
S11314701B787F2B00D986E700250223009382E79F
S113148062B2202313401F4310231A4017434B46D4
S11314901F70CBE75B469B00A20913438D4A944619
S11314A063445E00F6180F2323408020C002D84016
S11314B0894B984789498A4B9847041C80235B01D0
S11314C0F018884B9847011C201C874B98474B46C3
S11314D05861C8E7332200210EA8774CA0471E228A
S11314E0002106A8A047434633220EA91D20744CB0
S11314F0A047009000280AD00025009B002B00D0B4
S113150010E12DAE00239C46E346AC46F2E0434690
S11315101E2206A950206A4CA0470090002800D043
S113152014E10EAC83465346059330E06946097BCB
S113153049B220260E403243102631400A432A7015
S11315405CE0049B9800039A97093843614B9C46DE
S1131550604447003F180F2313408020C002D84046
S11315605D4B98475D495E4B9847061C80235B01A1
S1131570F8185C4B9847011C301C5B4B984768611A
S1131580113404239C46E3445B460C2B5DD02DAB05
S11315905A46D55823787F22190091430A002970AE
S11315A00F210B406B706178A970A6783603E1783F
S11315B009010E43217909090E430196607900035C
S11315C0A17909010843E17909090843217A09024B
S11315D0677A0F430297617B8A46A77BE17B04917C
S11315E0217C03914146896801299FD079B2202644
S11315F00E403243102631400A432A7006AAD25CB8
S11316002A7106AA944663449A7AEA701B7D6B7128
S113161041462C4B9847A860414601982A4B98476D
S1131620E86041460298294B9847286143469B68E5
S1131630012B86D00F21394053469800BF09384307
S11316404246234B984768619AE7059B9A460023D4
S113165000252DA903E004330C2B00D151E75A587F
S113166012787F2AF7D90135EDB2F4E721787F2982
S113167013D80133DBB2032B38D0370030689A001B
S11316802DA988464244146801787F29EED8217830
S11316907F29EED934601060EBE7A5788178691A68
S11316A089B20DB2023189B2012901D9022DE0DDDE
S11316B03C601060DDE7C046578800002D0C000038
S11316C0E90E0000B50600005D07000009090000EE
S11316D0290A000000FEFFFFC9BC00000024744971
S11316E071B6000029BC000091B2000004365B46CC
S11316F0022B07D05D460135EBB29B46022BBCD9C9
S11317000436F7E765464A4600202DACAC46110086
S11317100359E0CBE0C1E0CBE0C1183204300C281F
S1131720F5D16546002D00D02DE6022300932AE66C
S1131730002528E601235B42009329E601235B424E
S1131740009325E601235B42009321E60025009BDC
S1131750002BD8D0E6E7C046F0B5DE4657464E46E5
S11317604546E0B595B00190029110000092BC4B43
S11317701A8912AB1A80002900D136E10100002039
S1131780B84B9847051E07D0280015B03CBC9046BE
S11317909946A246AB46F0BD6E2204ABDA71643AB8
S11317A0002106A8B04CA0470A22002109A8A0479E
S11317B00A2200210CA8A0470A2200210FA8A04752
S11317C0019B022B00D1ADE0032B64D0012B06D08A
S11317D0002301930125002DD6D1019C14E05A2247
S11317E006AB1A70029C60880099A04B984709AB1D
S11317F0187064220CAB1A70A1889D4B9B329942DD
S11318003BD90FAB1A700024009B019A09A906A8C2
S1131810984DA8470500002DB6D1009E3300019ACB
S11318200FA90CA8934DA847051EADD13300022281
S113183013A97020904DA847051EA5D1029B1B78C3
S1131840012B00D1C6E00020012313A90A78082542
S1131850AA43DB001A430A704B780F2293431440C7
S1131860234321329343000103434B70009B2E3AE0
S113187012A8804CA047050086E73F2909D9002318
S113188089080133DBB23F29FAD89B015B18DAB22D
S1131890B7E70023F9E7029BDF68002F00D1BBE024
S11318A09C68002C00D1BCE01B7C0193002B00D170
S11318B0B0E05A33DBB299465A2500266B4B9A4660
S11318C06B4B9B460EE000239B015B18DBB204AA22
S11318D02C215218935501360135EDB202340237EA
S11318E04D451DD004AB08229B189D5520880099B6
S11318F0D04704AB14229B1898552B000A3304AA32
S11319002021521893553988FF235945DFD83F29A0
S1131910D9D9002389080133DBB23F29FAD8D3E7A8
S1131920019C71E70299CB68002B00D17EE08A68A4
S1131930002A00D17FE0488A8146002858D0097CDB
S1131940019100297CD01F00642600240395150012
S1131950019B984633000A3B04AA082152181355E8
S113196028880099414B984704AB14229B181855BA
S113197004AB0C329B181E553B8804AA2C21521828
S11319801355013402350136F6B20237E3B243454A
S1131990E0D3039D394AFF234946914205D904AA5D
S11319A09371002D52D0019C35E7FA2080004B46FC
S11319B05843DE21FF31324B984780B200233F2841
S11319C004D980080133DBB23F28FAD89B011B18E5
S11319D0DBB2E4E7009B9B680193012B02D001205A
S11319E0002332E7022000232FE701256D42CBE6D6
S11319F00299097C019103250029A4D1FA208000D1
S1131A004B465843DE21FF311D4B984780B2019B62
S1131A100325DBE7019CF7E60023019301256D42D2
S1131A20C1E70023019301256D42BCE70023019324
S1131A3001256D42B7E70023019301256D42B2E70A
S1131A400E4B9842B1D9FF2204AB9A71009B01223C
S1131A5004A9063104A80730064CA0470500BAE6DD
S1131A6008DA00001511000057880000150B00006B
S1131A70BF0F0000050E0000E90E00008207000001
S1131A800DAB000030B589B0040006A8012505702F
S1131A9005238370033B43702100084B984701A939
S1131AA00D70FA239B008B80AF235B004B802200D8
S1131AB00120034B984709B030BDC046D91100003E
S1131AC05917000010B582B0041E18D001290CD09B
S1131AD064200C4B98470C4BA3646B46073363603C
S1131AE01923A373002002B010BD77226B46DA716C
S1131AF0064B0364064B436401230373E8E70120A8
S1131B004042F0E76D6C0000CD0D0000450D000073
S1131B10910D0000BFF34F8F024A034BDA60BFF30D
S1131B204F8FFEE70400FA0500ED00E0F0B5ABB01E
S1131B3005009022002105A8134B9847134C21005F
S1131B400120134B9847FA208000124B984723003A
S1131B50A7226A4405A901200F4CA0470F4C0798FF
S1131B60A04706000F000898A04702900391099827
S1131B70A0470090019132003B0009492800094C1C
S1131B80A04700202BB0F0BD57880000704E002005
S1131B9015110000595D00002D130000A5D80000A8
S1131BA050DA000021930000F0B585B00290039153
S1131BB0174B98470700174C062200212000164BAC
S1131BC0984721003800154B98470023E05E144FD6
S1131BD0B847144E30600223E05EB84770600423B7
S1131BE0E05EB847041CB0600F4D3068A84707009A
S1131BF0201CA84701907068A84700903B000B4A3E
S1131C00039902980A4CA047002005B0F0BDC046D5
S1131C1001290000B002002057880000D1240000F0
S1131C20B523000094020020E9BB00002CDA000078
S1131C30BD920000F8B506000F00064D1B23064AAE
S1131C400F212800054CA0472A0039003000A04786
S1131C500020F8BDA0020020E8DB0000BD920000D7
S1131C6010B50400054B9847054B984702000B003C
S1131C7004492000044CA047002010BD9501000039
S1131C80A5D8000018DA000021930000F0B5D6466C
S1131C904F4680B583B06748674CA0476748A04764
S1131CA06748A0476748A0476748A0476748684B0C
S1131CB09847032200210120664B9847664B186021
S1131CC0002806D165490330654B98470020654BD1
S1131CD098470024644B99465F4B9A4633E00121B0
S1131CE0494253461868614B984701A85E4B984790
S1131CF02DE05F48564B984700245E4B1C705E4BAA
S1131D001C705E4D31225E4928005E4B984731239A
S1131D10EC545D4C5A4E5D4F642221003000B847AC
S1131D20050000226323E2542000494B9847002D0C
S1131D30F2D1322200215248554CA047642200219E
S1131D405148A047002401A8C847431CC7D06B468C
S1131D501B790A2BCDD00D2BCBD0464A1278002A02
S1131D603FD0454A1278032A13D8511CC9B24248BD
S1131D700170484883540129E5D947494548474BF0
S1131D80984700280BD100233A4A13703A4A13703B
S1131D90D9E70023374A1370374A1370D3E7384C16
S1131DA01B223F4920003F4B98472000284B98476F
S1131DB0322200212000364B984731222F4920003F
S1131DC0304B98472000384B98473124302803D8AB
S1131DD02A48354B98470400E4B229481C4B9847DD
S1131DE0D1E7082B10D07F2B0ED01B2B1AD0312C0F
S1131DF003D8234A13550134E4B200236A465371CD
S1131E0001A8134B98479EE7284B1B68009368462C
S1131E100F4B9847002C96D0013CE4B20022184B9B
S1131E201A5590E70122134B1A700022124B1A70B4
S1131E3089E7C04610DC0000392F0000F0DB000009
S1131E40D8DB000000DC0000C8DB000058DB000029
S1131E507D6B000099470000243900209CDB0000C2
S1131E602D6C0000F95E0000016C00007D52000042
S1131E70FCEB0000B6020020B7020020F0020020B4
S1131E80BC020020D1930000240300207D2F000019
S1131E9057880000B8020020BCDB000065930000F6
S1131EA0C0DB000021930000A193000014DA0000BD
S1131EB010B5084C00232360074B18682100074B1A
S1131EC098472368002B03D080225205044B1A60E4
S1131ED010BDC0468803002024390020614F000053
S1131EE004ED00E010B582B000240194074B18689B
S1131EF001A9074B9847074B1C70019B002B03D08B
S1131F0080225205044B1A6002B010BD54390020DF
S1131F10614F00008C03002004ED00E010B582B096
S1131F2000240194074B186801A9074B9847074BF5
S1131F301C70019B002B03D080225205044B1A60B5
S1131F4002B010BD54390020614F00008C03002002
S1131F5004ED00E010B582B000240194074B18682A
S1131F6001A9074B9847074B1C70019B002B03D01A
S1131F7080225205044B1A6002B010BD543900206F
S1131F80614F00008C03002004ED00E070B50C4CA0
S1131F9000220C4920000C4DA847637E0122134304
S1131FA063760A492000A847637E022213436376BE
S1131FB007492000A847637E04221343637670BD5B
S1131FC02C390020E51E0000690400001D1F0000DC
S1131FD0551F000070B58EB001AB64220192334AE4
S1131FE00292002203921A731A76802189030591C2
S1131FF001214942998225315A540B9208315A548D
S113200001315A5401315A54D7321A86284A089257
S1132010284A0992284ADA820324284D284E01AA24
S113202028492800B047002806D02448264B984762
S1132030013CE4B2002CF2D1204B1C680722E36976
S11320401A42FCD123680222134323601B4D2868E3
S11320501E4B98471F2318401E3B83401C4A1360A5
S1132060E88800231021628B0A4204D101338342A1
S1132070F9D310236383174B98470120164B9847D5
S1132080164C2060032200210120154B9847154B64
S113209018602368002B04D00023002802D10633E3
S11320A000E0062318000EB070BDC046480D0000C5
S11320B00200080002000900102700002C3900204B
S11320C0812A000000080042792D000035720000CA
S11320D000E100E08D1F0000FD4B000028390020C6
S11320E0994700005439002010B5002812D04368E5
S11320F0002B12D00A4902780A804B60C3894B80B6
S11321000848094B98470023002801D1180010BD46
S1132110063BFBE708235B42F8E708235B42F5E74D
S1132120583900202C390020A504000010B50028DF
S113213013D04368002B13D00B4903780B808368BA
S11321404B6083894B800948094B9847002300283A
S113215001D1180010BD063BFBE708235B42F8E7FA
S113216008235B42F5E7C046583900202C3900208B
S11321708104000010B5074B1868002300220021D9
S1132180054CA0470023012801D1180010BD143BC1
S1132190FBE7C04628390020D548000010B50100EF
S11321A0054B1868054B98470023012801D11800F6
S11321B010BD1D3BFBE7C046283900207D520000BE
S11321C070B505000C0008000F4B9847002800D09C
S11321D070BD0E4B1E6828000D4B9847002805D192
S11321E0210030000B4B9847012802D00A4B984736
S11321F0EEE70A4B1B78002B03D00022074B1A7022
S1132200F4E7054B9847E3E79D210000543900208B
S11322102D2100007D520000752100008C03002058
S113222070B505000C0008000F4B9847002800D03B
S113223070BD0E4B1E6828000D4B9847002805D131
S1132240210030000B4B9847012802D00A4B9847D5
S1132250EEE70A4B1B78002B03D00022074B1A70C1
S1132260F4E7054B9847E3E79D210000543900202B
S1132270E92000007D520000752100008C0300203D
S1132280F8B505000E00140010001B4B98470028F9
S113229000D0F8BD194B1F682800194B9847002837
S11322A005D121003800174B9847012802D0164B5E
S11322B09847EEE7154B1B78002B03D00022134BF5
S11322C01A70F4E73000124B98472800114B9847D6
S11322D00028ECD1210038000A4B98470128E6D1A8
S11322E00A4B1B78002B03D00022084B1A70DEE740
S11322F0054B9847CDE7C0469D2100005439002086
S1132300E92000007D520000752100008C030020AC
S1132310595D00002D210000F0B585B00500009244
S1132320019302A8C31DC171084C8026B6026661E0
S1132330012219002800064FB847019A0099280085
S1132340B847A661002005B0F0BDC0460044004176
S11323504D760000F0B585B0040001921E0002AB7A
S1132360D81D80235B420B430370094F8025AD02C7
S11323707D61012201002000064B984700233200B2
S113238001992000044CA047BD61002005B0F0BDB8
S1132390004400414D7600008975000070B58568E1
S11323A044682800A04770BD70B58568046828009B
S11323B0A04770BD10B5034B98470349034B98479A
S11323C010BDC04629BC000023DB793D71B6000076
S11323D070B582B004000D00012301AA10210A4E39
S11323E0B047002801D002B070BD01AA03212940E2
S11323F08B0011780C308143194311700123102193
S11324002000024CA047EEE79D230000A923000012
S113241070B582B004000D00012301AA11210A4EF7
S1132420B047002801D002B070BD01AA072129409D
S11324304B0011780E30814319431170012311218F
S11324402000024CA047EEE79D230000A9230000D2
S113245070B582B004000D00012301AA12210A4EB6
S1132460B047002801D002B070BD01AA0121294063
S11324708B011178403081431943117001231221DB
S11324802000024CA047EEE79D230000A923000092
S113249070B582B004000D00012301AA15210A4E73
S11324A0B047002801D002B070BD01AA0121294023
S11324B0CB00117808308143194311700123152191
S11324C02000024CA047EEE79D230000A923000052
S11324D030B583B00C0006236A4628210A4DA8476C
S11324E06B465A7812021B789B1823806B46DA7865
S11324F012029B789B1863806B465A7912021B79EF
S11325009B18A38003B030BD9D23000070B582B03A
S113251004000D00012301AA0121094EB04700283F
S113252001D002B070BD01AAAD0113783F2119405A
S113253029431170012301212000024CA047F0E738
S11325409D230000A923000010B50A0001230F21D8
S1132550014CA04710BDC0469D23000070B582B059
S113256004000D00012301AA10210A4EB0470028DF
S113257001D002B070BD01AA012129404B0011789D
S11325800230814319431170012310212000024CB1
S1132590A047EEE79D230000A923000070B582B098
S11325A004000D00012301AA1721104EB047002892
S11325B001D002B070BD01AA2B0901210B40980083
S11325C013780426B3436E093140090103431020F4
S11325D083436D010B431F210B401D4315700123E1
S11325E008392000024CA047E3E7C0469D230000C1
S11325F0A923000070B582B004000D0001236A46CF
S11326001821164EB047002801D002B070BDEA0967
S113261052006B461B7802218B4313436A461370A6
S11326200123163120000E4EB0470028EDD10123BE
S113263001AA62212000094EB0470028E5D101AA71
S113264003212940CB0011781830814319431170BC
S1132650012362212000024CA047D6E79D230000FD
S1132660A923000070B504000D000221084B98470F
S1132670002800D070BD02232A0046212000054D09
S1132680A8470028F6D100212000014B9847F1E724
S11326900D2500009D23000070B582B004000D00DC
S11326A00221174B9847002801D002B070BD0123C6
S11326B001AA5F212000134EB0470028F5D101ABD9
S11326C01B78DB069B0FDAB2012A0FD0002A06D052
S11326D0022A0ED0032A0FD000232B7001E000231E
S11326E02B7000212000064B9847DEE701232B7056
S11326F0F7E702232B70F4E703232B70F1E7C046BE
S11327000D2500009D23000070B582B004000D006B
S113271001A9384B9847002842D101A90A78D0076B
S1132720930718435307034310070343D006184382
S11327309306184353060343DB0FD20913434A7825
S1132740D107C90F0B439107C90F0B435107C90F99
S11327500B431107C90F0B43D106C90F0B43910655
S1132760C90F0B435106C90F0B43D2091343DBB204
S1132770012B17D001236A46102120001E4EB047BA
S113278000280DD12B016A4612780F2515401D43F0
S11327906B461D7001236A4610212000174CA04788
S11327A002B070BD6B46D91C2000154B9847002819
S11327B0F6D16B4603331B78012B0FD0002B09D0C5
S11327C0022B11D0032BD5D12B1C032D00D80423AD
S11327D0DDB2CFE7002DCDD10125CBE72B1C012D98
S11327E000D80223DDB2C5E72B1C022D00D8032339
S11327F0DDB2BFE7652600009D230000A923000089
S11328009926000070B582B004000D0001A9384B70
S11328109847002842D101A90A78D00793071843A2
S11328205307034310070343D00618439306184382
S113283053060343DB0FD20913434A78D107C90F68
S11328400B439107C90F0B435107C90F0B431107E2
S1132850C90F0B43D106C90F0B439106C90F0B4394
S11328605106C90F0B43D2091343DBB2012B17D016
S113287001236A46112120001E4EB04700280DD1C5
S11328802B016A4612780F2515401D436B461D70B7
S113289001236A4611212000174CA04702B070BDE5
S11328A06B46D91C2000154B98470028F6D16B467F
S11328B003331B78012B0FD0002B09D0022B11D02E
S11328C0032BD5D12B1C032D00D80423DDB2CFE775
S11328D0002DCDD10125CBE72B1C012D00D80223DF
S11328E0DDB2C5E72B1C022D00D80323DDB2BFE700
S11328F0652600009D230000A923000099260000FE
S1132900004870476800002010B582B06B46DC1D9B
S11329100023237021001848184B984723786C2B08
S113292027D1154C80212000154B98470121200008
S1132930144B984700212000134B9847072120008F
S1132940124B984707212000114B98470021200083
S1132950104B9847062120000F4B98470421200074
S11329600E4B9847012120000D4B9847002002B0E0
S113297010BD01204042FAE768000020492500000C
S1132980F5250000512400009124000009270000CF
S113299005280000D1230000112400009D2500001B
S11329A05D25000030B591B0274C1123237000231E
S11329B06370A37001A901224A708B700A70112000
S11329C0224B98472278D1090023002904D15309C6
S11329D0DB011F498C4663441F2111400122100072
S11329E08840986102AC22700025039525746574B3
S11329F0A27425752423E5540B32002108A8154B35
S1132A00984798235B03E360134BA362134BE36281
S1132A1001235B422363124B6363124BA361802344
S1132A205B05A360E574104D220010492800104B8B
S1132A3098472A68D369002BFCD1136802210B4301
S1132A40136011B030BDC04674000020196E000040
S1132A5000440041578800000300220003002300C3
S1132A600200150040420F0064390020001C00429F
S1132A70C572000001680722CB691A42FCD1704775
S1132A80F0B5D6464F464646C0B58AB006000F009C
S1132A90140031600800A04B9847A04A116A851CB5
S1132AA00123AB400B43136209A9237B0B70143041
S1132AB0C5B228009A4B984728009A4B9847207B28
S1132AC00021994B98473B681C209B0705D50AB009
S1132AD01CBC90469946A246F0BD3B681738DB07FC
S1132AE0F5D430688C4B9946984705008F49904B34
S1132AF09847AD008F4BEE50002333767376002554
S1132B007383B3832522B554336214333B60336833
S1132B1098461800C8478146802308AA1370557048
S1132B2001239370D570E069276A002800D1AFE0D3
S1132B3008AB1870022308AA5370000CC0B211002D
S1132B407D4B9847002F00D1A7E008AB1F700223EC
S1132B5008AA53703F0CF8B21100774B9847A38A28
S1132B60F380E38A3381237E8022002B04D1734BCC
S1132B709B789B07DB0FDA01A16823690B4313439E
S1132B802422A25C002A02D08022D2051343A26A26
S1132B9013432C22A25C002A03D180229204914286
S1132BA002D18022120513432D22A25C002A02D0F6
S1132BB08022120413432E22A25C002A02D0802217
S1132BC0D2031343424612681343424613608023E0
S1132BD05B00536048461430C0B2594B9847079085
S1132BE0FA239B0022685A43914663689A46554DDE
S1132BF0A847009001914B465800A84702900391C2
S1132C00208EA847049005914F4F504A504B00988E
S1132C100199B84702000B0004980599B8474D4E36
S1132C2000224D4BB047049005914846A847020046
S1132C300B0004980599B84702000B00474D009813
S1132C400199A847029A039BB0470022444BA84726
S1132C50029A039B434DA847434B984705008023A2
S1132C609B04A2689A421ED003004020FF2D00D985
S1132C702DE700240020FF251D40240625430004E1
S1132C80FF231B04184005434346DD6000201EE774
S1132C9000214046354B98474AE701214046334BD3
S1132CA09847070051E7FA26B60053465E4300985A
S1132CB0019902000B00274CA047009001913000BD
S1132CC0204B984700222A4BB84702000B0000987B
S1132CD00199244CA0470022214B204CA047224BB1
S1132CE09847041E0CD031000798224B98470238AD
S1132CF0001B2B00FF2D0CD8FF28BCD94020E6E692
S1132D007100481E079B9C4660441A4B9847013843
S1132D10EFE74020DBE6C046BD7100000004004040
S1132D20B582000029820000F96F0000C904000088
S1132D30F9710000444E0020DD83000000200041B2
S1132D40D182000035D80000DDCB000095D626E8FE
S1132D500B2E113E55BD000000002440DDD00000C4
S1132D600000F03F75C3000049D700004570000023
S1132D70000008400DAB0000F8B5CE46474680B5CC
S1132D80040003689946144EB04725682800134B85
S1132D90984698471F231840012739008140613322
S1132DA00F4AD1502000B04783232B752B762B6814
S1132DB0022293432B600B4B98472068C0470A4B71
S1132DC098470A4B98472000B0474B461F600CBCFD
S1132DD090469946F8BDC046752A00003572000039
S1132DE000E100E0996C000005830000D96C00004C
S1132DF003681A7E920707D502221A765B8B9B071B
S1132E004120DB17184070475A8B520706D5596882
S1132E10C02292020A435A601820F4E70020F2E725
S1132E2030B50268002301240225117E21420BD112
S1132E30117E294206D101339BB201899942F4D80B
S1132E40122002E0002000E0002030BD10B504682C
S1132E5062688023DB02134363606162024B98471C
S1132E600123237610BDC046212E000070B58000DA
S1132E70164BC45823689D7B227E637E13401D40FD
S1132E80EB0706D4AB070BD4EB0610D4AB0615D472
S1132E9070BD2000A3689847012322689373F1E76B
S1132EA02000E3689847022322689373ECE720002C
S1132EB023699847102322689373E7E72000636926
S1132EC09847236820229A73E2E7C04670390020AD
S1132ED010B50020014B984710BDC0466D2E000070
S1132EE010B50120014B984710BDC0466D2E00005F
S1132EF010B50220014B984710BDC0466D2E00004E
S1132F0070B50A00094B1B68002B0AD0074C2568D2
S1132F102B685968064B984768682060431E98419F
S1132F2070BD0449014B1960F0E7C04694030020CA
S1132F30D19300007C00002070B5051E06D0082047
S1132F400A4B9847041E03D172B6FEE772B6FEE739
S1132F50074B9847256000236360064B1A6854604A
S1132F601C60054B9847012070BDC046E543000036
S1132F70214300007800002039430000F0B5DE460C
S1132F8057464E464546E0B583B00600009101928F
S1132F90394B1B68002B11D01B689B6832000199C8
S1132FA000989847002802D10022334B1A6003B0DE
S1132FB03CBC90469946A246AB46F0BD2F4C2E4BE6
S1132FC01C602F4B9946202398462E4B9B462A4B38
S1132FD09A460AE0020029003000D84700280DD0A4
S1132FE0646853461C60002C3ED027683D68280066
S1132FF0C847335C42469343F2D1EBE73F7B7FB251
S1133000002F2DDB3378002B28D03200002500213F
S1133010012408E001290AD001356DB221000132F2
S11330201378002B05D0202BF4D00100F7E7210002
S1133030F5E701290FD0104B1B68002B14D0AF42C9
S1133040AAD0019A10490098104B984700220A4BC5
S11330501A600020ABE7013D6DB2ECE70025EAE71A
S1133060054B1B68002B97D1019A09490098074B1F
S1133070984700209BE7C046900300207C00002076
S1133080A1930000AF93000020DC0000D193000066
S113309078DC000010B5014B984710BDD5550000F1
S11330A010B5024B984780B210BDC046256200009F
S11330B010B5024B9847000C10BDC04625620000B5
S11330C070B504000D00044B9847010C0904294312
S11330D02000024B984770BD256200003162000059
S11330E070B504000D00054B98470104090C2D042C
S11330F029432000024B984770BDC046256200005A
S11331003162000010B5024B984780B210BDC04632
S1133110CD55000010B5024B9847000C10BDC046B9
S1133120CD55000070B504000D00044B9847010C08
S1133130090429432000024B984770BDCD55000077
S1133140D155000070B504000D00054B98470104EB
S1133150090C2D0429432000024B984770BDC0463A
S1133160CD550000D155000010B5014B984710BD56
S11331703962000010B50400094B9847012C04D0B3
S1133180022C05D0002C07D110BD064B9847FBE755
S11331900548064B9847F7E70548044B9847F3E77B
S11331A0993300007941000034E0000071350000DB
S11331B074E0000010B52F4B1B680922DA65013258
S11331C064215A5401315A5401315A54053201319F
S11331D05A54623968201954013019540130195471
S11331E001301954013019546B315A5401315A5475
S11331F001315A5401315A5401315A5401315A544B
S113320001315A5401315A5401315A5468396D32DA
S1133210995401329954013299546B3A13301A5427
S1133220112401301C540130195472315A540131A3
S11332305A5401315A54002175329952A031023244
S11332409952A03102329952A031023299520A495C
S11332500232995209490232995209490232995269
S11332600849023299525F3102329952064A1A666B
S113327010BDC04698030020FD0200005203000068
S1133280A203000001040000BF040000174B002249
S11332905A821A800A329A825A800A32DA829A80D0
S11332A00A321A83DA800F325A831A8105329A83DA
S11332B05A810532DA839A8105321A84DA81053219
S11332C05A841A82383A9A840A32DA840A321A857B
S11332D00F325A8505329A850532DA8505321A8607
S11332E005325A8605329A867047C046B4030020D8
S11332F0082813D880000B4B1B589F460A4810E03F
S11333000A480EE00A480CE00A480AE00A4808E0C5
S11333100A4806E00A4804E00A4802E00A4800E0D5
S11333200A48704710DD00007CDD0000C4DD0000A9
S113333018DE000064DE0000B0DE0000FCDE0000E9
S113334050DF0000A8DF000004E0000034DD0000CE
S113335010B5002A0DD00B7803700B78002B08D021
S1133360002301339A4204D0CC5CC454CC5C002CBE
S1133370F7D110BD10B5064B1B68002B01D00022FD
S11333801A63044B1B68002B00D0984710BDC0463D
S11333909803002060040020F8B5DE4657464E46E8
S11333A04546E0B5514B1B68002B00D199E01B78D2
S11333B0012B00D18FE04E4B1A684E4B1A604B4CD8
S11333C04D4D2A00002120684C4B984723684C4AF5
S11333D09A8105229A730022DA731D61C82149007B
S11333E09961484959659A655A63474B98472068DB
S11333F0464A474BC250C82292000433C250454B40
S11334000122C250444A91231B01C250434B9C46A3
S1133410604450224249434B984723684249434AF7
S113342099500A21424A99540131424A995401312E
S1133430414A99540131414A9954013264319954B1
S113344072253F4A9D5473263E4A9E5474273E4A31
S11334509F54F12290463D4A41469954F2229146A6
S11334603B4A49469954F32292463A4A5146995462
S1133470F4229346384A59469954384B984723685E
S11334805A46DA7252469A724A465A7242461A7238
S1133490DF719E715D7171221A710422DA70032347
S11334A022689370013B22685370236801221A70CA
S11334B02B4B196800290ED00C4C2368174A9446EC
S11334C0634418005022174B984722680121254B6A
S11334D0D150254B98473CBC90469946A246AB46F2
S11334E0F8BD224A014B1A6065E7C04698030020E4
S11334F018E000E034490020B80F000057880000AD
S1133500A11A0000F0F0F0F0B5310000F1F1F1F192
S11335105C05000064050000F2F2F2F214090000F8
S113352074E2000051330000F3F3F3F36409000084
S1133530AC0F0000AD0F0000AE0F0000AF0F000095
S1133540B10F0000B20F0000B30F0000B40F000071
S1133550B50F0000B60F0000B70F00008D32000059
S1133560500400200C090000753300007C39002051
S113357010B504000E4B1B68002B01D00D4B98476F
S11335800D4B1B68002B00D010BD0B4B1C60084B6F
S113359018680028F8D0094B9C466044502221004A
S11335A0074B9847024B1A680121064BD150EBE7B1
S11335B09803002075330000500400201409000013
S11335C0513300000C09000010B50B4B1868036B55
S11335D0002B0FD0C3699022FF32934205D89B0081
S11335E0064A94466344C01810BD0548054B9847E5
S11335F00020F9E70020F7E798030020680900009D
S113360088E2000071350000F0B5C64600B5002818
S113361006D007000025002805D0234B98460AE071
S11336202248234B984704BC9046F0BD012A20D081
S11336300135BD42F7D243461C68E369EB189E008E
S1133640A2191C498C466244127811006731C9B230
S11336500E29EBD86832D2B2D318A1698B42E7D2D3
S1133660013292006346F01820180021124B98474B
S1133670DEE70133A269934207D20E4BF0182018FB
S1133680082200210C4B9847D2E70A4BE018042289
S11336900021094B9847074BF018201804220021F9
S11336A0054B9847C4E7C04698030020A8E00000F3
S11336B071350000680900005788000010B50B4BF5
S11336C01B681A6B002A10D05A6901325A61DA69F0
S11336D00132DA619021FF318A4203D901221A6250
S11336E00022DA610120024B984710BD98030020A4
S11336F00936000070B504000D00FF2802D00D4B00
S1133700984203D1AC4205D3280070BD0A480B4B44
S11337109847F9E70A4B9847002809D0012303701A
S11337202B00A3431A0A42701B0C4380054B984795
S11337302540E9E7FFFF0000ACE10000713500001F
S1133740C9350000BD36000010B5082914D800287A
S113375017D00E4B1A68531864331B78834210D366
S113376053187C331B7801385843403149005118B1
S11337700B89C01880B208E00548064B9847002022
S113378003E00548034B9847002010BD9803002030
S11337903CE80000713500007CE8000010B50B0027
S11337A001001800044B9847044B1B6818189C3000
S11337B00123037010BDC046493700009803002060
S11337C070B5040008001500082C13D80D4B1B68B5
S11337D01B1964331B788B4210D321000A4B984782
S11337E0084B1B681C19703422781B189B189D33D6
S11337F01D7070BD0548064B9847FAE70548044B11
S11338009847F6E79803002049370000C4E3000016
S11338107135000010E4000010B504000800082C05
S113382013D80F4B1B681B1964331B788B4211D3BD
S113383021000C4B98470A4B1B681C1970342278E2
S11338401B189B189D33187810BD0748074B9847E1
S11338500020F9E70648054B98470020F4E7C046E6
S11338609803002049370000E8E1000071350000AA
S113387034E2000070B5040008001500082C13D8C9
S11338800D4B1B681B1964331B788B4210D321002A
S11338900A4B9847084B1B681C19703422781B1874
S11338A09B189C331D7070BD0548064B9847FAE77A
S11338B00548044B9847F6E7980300204937000071
S11338C044E300007135000088E3000010B50B4BA1
S11338D01A686723D35C83420CD30321084B9847AF
S11338E0064B1B6873229A5C1B189B189C3300229E
S11338F01A7010BD0348044B9847FAE79803002058
S11339004937000050E400007135000070B52D4BBC
S11339101B68002B46D0082849D8EFF310840123F4
S113392083F31088284A136801331360274A43003D
S11339309B5AD21848321278002A0AD12349CD184A
S113394048355A1C06000836760089194988521AE7
S11339502A700100103149001C4A521892889A4278
S11339602AD31A49CA184832127801339BB2450047
S11339706B52050008356D004D196D885B1B050001
S113398018356D004919C9888B4203DD0F49481960
S1133990DBB2C3800C490B68013B0B6084F31088D5
S11339A0100070BD0A480B4B98470022F8E70A48FC
S11339B0084B98470022F3E7084B9847054B984774
S11339C00022E7E79803002048040020B403002005
S11339D040E900007135000064E10000F1320000AC
S11339E070B504000800151E12D0082C14D8002944
S11339F016D0164B1B681B1964331B788B4213D3E8
S1133A002100134B9847134B1B68002B12D070BD39
S1133A101148124B9847FAE71148104B9847F6E7BC
S1133A2010480E4B9847F2E720000F4B98470B4B7A
S1133A309847ECE7054B1B681C19703422789C30BE
S1133A4018182900094B9847E1E7C046980300205D
S1133A504937000050040020B0E200007135000036
S1133A60E4E2000014E30000F132000051330000EE
S1133A7070B51E4B1B68012B2BD01D4B19681D4BB9
S1133A801B680131C91A1C4B1B681C4A1468E243A9
S1133A90DA4224D41A4A1468A142A44164421C198B
S1133AA000281FD0124D2B6801339B0863431A0072
S1133AB0144E33602D68013503232B4063435B1898
S1133AC09B089B1833600C4A146003600C4B19600C
S1133AD070BD0028FCD00B4B1B680360F8E7A342C1
S1133AE0DED1D7E7044B1C60F0E7C0465404002045
S1133AF014E000E018E000E0B00300205C040020C3
S1133B00A8030020AC030020F0B583B00500002317
S1133B100193FF2802D0394B984235D1384B1C68A9
S1133B20636A002B05D1374B1B68002B31D09B08EF
S1133B30636201A8344B9847019B344A11685C1AAC
S1133B4013602F4A1668776A002F32D0BC422CD9F2
S1133B50390020002E4B9847F36A9C466044F0627B
S1133B60390020002B4B9847B36A9C466144B162EC
S1133B70234B1B689A6A596A8A421BD3D86A01305C
S1133B80D862521A9A6215E02348244B98470020C1
S1133B9014E0234B1A68234B1B689A42C9D00020B7
S1133BA0214B984780086062C3E7B36A1B19B3626C
S1133BB0DEE7B362AC4203D82000284003B0F0BD76
S1133BC01A4B98470028F7D00C4B9D4207D0FF2D85
S1133BD00CD01748114B9847164B9847ECE7A9238C
S1133BE00370230C438000234370F5E7A82303707C
S1133BF0230A4380230E4370EEE7C046FFFF000014
S1133C00980300204C040020713A00004404002072
S1133C100DAB000019AC000000E10000713500009C
S1133C2018E000E0344900209D810000C9350000FF
S1133C3040E10000BD36000070B5041E1DD01B4BD2
S1133C401B68002B19D00F2818D8194B1B68002BA0
S1133C5018D1EFF31085012383F31088144A1368F5
S1133C6001331360134B1B681B6B002B0ED1104ADE
S1133C701368013B136085F3108870BD0E480F4B29
S1133C809847FAE70E480D4B9847F6E70D480E4B58
S1133C90984706000D4B98470028E8D0022303708C
S1133CA0468044700A4B9847E1E7C04690000020E4
S1133CB0480400209803002040E70000713500000C
S1133CC080E70000FFFF0000093B0000C935000049
S1133CD0BD360000F0B583B000900C00284B1B6883
S1133CE0002B1DD0D317D6185E40EFF310850123A7
S1133CF083F3108823490B6801330B60002C04D034
S1133D00214B19688C4662441A601D4B1B681B6B5F
S1133D10002B07D11B4A1368013B136085F31088FD
S1133D2003B0F0BDFF20194B9847019031001848AB
S1133D30184B98470600184B9847071EEAD06B4665
S1133D401B794370002303704680144B984721006D
S1133D500F48104B984706000F4B98470028D9D0BE
S1133D604680002343706B461C78631C03703C70D0
S1133D700A4B9847024B1B68034A12681A65C9E745
S1133D809803002048040020A0030020093B000001
S1133D90FFFF0000F5360000C9350000BD36000005
S1133DA0F8B505001400FE2825D8082927D8214B8A
S1133DB01B68591864310B78934224D31E4B1B683B
S1133DC0002B24D11D4B1B78002B13D0EFF310864E
S1133DD0012383F31088184A136801331360154BC9
S1133DE01B681B6B002B16D1134A1368013B13602D
S1133DF086F31088F8BD1248124B9847FAE7124828
S1133E00104B9847F6E711480E4B9847F2E71048D5
S1133E100C4B9847EEE70F480F4B984707000F4BA2
S1133E2098470028E0D04780057044700C4B9847B1
S1133E30DAE7C04698030020480400209C030020D1
S1133E4098E4000071350000D0E4000018E500009B
S1133E5060E50000FFFF0000093B0000C9350000D9
S1133E60BD360000F0B5C64600B5060014001D00BE
S1133E70FE2827D8082929D8244B1B6859186431EF
S1133E800B78934226D3224B1B68002B26D1EFF3E9
S1133E901088012383F310881D4A136801331360CB
S1133EA01A4B1B681B6B002B03D01A4B1B78002B7F
S1133EB018D1174A1368013B136088F3108804BCB7
S1133EC09046F0BD1448154B9847F8E71448134B37
S1133ED09847F4E71348114B9847F0E712480F4B03
S1133EE09847ECE7FF20114B984707002900FF2073
S1133EF00F4B984705000F4B98470028D9D0C7703F
S1133F000670447085700C4B9847D2E798030020E4
S1133F10480400209C03002028E6000071350000BE
S1133F2068E60000B8E6000008E70000093B00006E
S1133F30F5360000C9350000BD360000F8B50400B0
S1133F400D00FE281CD81C4B1B68002B1CD1EFF362
S1133F501086012383F31088174A13680133136012
S1133F60164B1B681B6B002B03D0154B1B78002BC7
S1133F700ED1114A1368013B136086F31088F8BD13
S1133F801048114B9847FAE710480F4B9847F6E74B
S1133F90FF200F4B9847070029000E480E4B984707
S1133FA005000E4B98470028E3D047700470458005
S1133FB00B4B9847DDE7C0464804002098030020D7
S1133FC09C03002098E5000071350000F0E5000036
S1133FD0093B0000FFFF0000F5360000C935000072
S1133FE0BD360000F8B504000F2818D8EFF310858B
S1133FF0012383F31088264A136801331360254B89
S11340001B78834204D0244B1B681B6B002B0AD102
S11340101F4A1368013B136085F31088F8BD1F48DD
S11340201F4B9847FAE700221E4B1A601E481F4B8D
S113403098470700174B1C701D4B9847061EE7D086
S1134040144B1878144B1A686723D35C83420FD33C
S11340500321184B9847104B1B6873229A5C1B185A
S11340609B189C331B78012B05D10633337004E075
S113407011480B4B98470623337077807470054BB7
S11340801978012203200D4B98470D4B9847BFE741
S1134090480400209C03002098030020B8E7000097
S11340A071350000A4030020FFFF0000093B00005D
S11340B0C93500004937000000E8000075380000E9
S11340C0BD36000070B5204B1B68002B0AD0186B5E
S11340D0012806D01D4B1B68002B08D01A4B1B6807
S11340E0186B70BD1A481B4B98470020F9E7EFF393
S11340F01085012282F3108817490B6801330B6085
S1134100114B1B681A63154B9847154B9847C4B25B
S1134110002C09D02000134B98470F4A1368013B29
S1134120136085F31088D9E703200F4B98470600E6
S113413004000E4A010003200D4B98470022310071
S113414003200C4B9847E5E7980300205004002017
S1134150BCE800007135000048040020693100000B
S1134160A1300000E53F00000D39000000E9000027
S1134170E1390000C137000010B5014B984710BD6C
S1134180C5400000030008334360012252428260AC
S1134190C360036100230360704700230361704719
S11341A043684B609A688A609A68516099600861B4
S11341B0036801330360704730B50C6802000832AD
S11341C0631C02D1026904E01A0053681D68AC4202
S11341D0FAD253684B6099608A6051600861036841
S11341E00133036030BD036942688168916082686D
S11341F0416851605A68904206D0002202611A68F0
S1134200013A1A601868704782685A60F5E700003E
S113421082B000230193064B1B68013301D072B6B0
S1134220FEE772B6019B002BFCD002B07047C0467B
S113423094000020000000000000000000000000C6
S11342400B4A13681868203080F30988022080F331
S11342501488BFF36F8F3FBCAE4608BC04BC62B683
S11342601847C046C046C046C046C046C046C046C1
S11342703437002010B5031F802464041C60043B01
S11342801960043B02491960143B1A60403810BDA0
S1134290114200007047000070B5134B1968FF22EB
S11342A012040A431A601968FF2212060A431A60AC
S11342B00E4D00242C600E4B1C6000200D4B9847C3
S11342C0FA2189000C4B984701380C4B18600723DE
S11342D02B600B4B1C600B4B98470B4B98470B4BBD
S11342E09847002070BDC04620ED00E010E000E0DB
S11342F018E000E09D8100000DAB000014E000E038
S11343009400002041420000F95D000011420000C9
S113431080225205014B1A607047C04604ED00E04C
S113432072B6044A136801331360BFF34F8FBFF3AF
S11343306F8F704794000020064B1B68002B01D13F
S113434072B6FEE7013B034A1360002B00D162B64C
S11343507047C04694000020EFF3108072B6704797
S113436080F3108870470000000000000000000087
S1134370EFF309800E4B1A6820381060F0C04446F1
S11343804D4656465F46F0C008B572B601F034FD9E
S113439062B60CBC116808681030F0C8A046A94683
S11343A0B246BB4680F309882038F0C81847C04697
S11343B03437002010B5074B98470400064B984744
S11343C0002803D080225205044B1A602000044BBD
S11343D0984710BD59430000A15A000004ED00E0C5
S11343E06143000070B50400430702D007239C43D7
S11343F00834184B9847184B1B68002B17D0174BE1
S11344001A68A31816498B4218D89A4216D2124930
S11344100D68AD18114A1360002D0FD02200290039
S11344209420104B9847104B9847280070BD0722E2
S11344300E4B08339343084A1360E0E7220000213F
S1134440E820084B9847084B9847094B98470025A4
S1134450EBE7C046855A0000640400203037002092
S1134460BF320000D53C00002D5C00006804002031
S1134470C1870000002801D072B6FEE77047000033
S1134480024B1B68CB208001C01A704730370020D4
S113449010B50400034B9847A46B034B9847604244
S11344A0604110BD214300003943000070B5040091
S11344B01600856B026C002A0BD10020236883420E
S11344C004D16068164B9847002363600135A563E7
S11344D070BD002E0ED18068124B9847A368226CE1
S11344E094466344A360002062689342EED3236839
S11344F0A360EBE7C0680B4B9847236C5B42E26810
S1134500D218E26021688A4203D262689446634406
S1134510E3600020022ED9D18542D7D0013DD5E7F2
S11345207D63000045880000F0B5CE46474680B55F
S113453083B001900091846C002C05D0A26BE36BD6
S11345409A4203D372B6FEE772B6FEE7A26B002668
S1134550934205D8300003B00CBC90469946F0BD98
S11345604523E55C6DB22C4B98472C4B98472C4B5C
S11345701B8803421ED020002A4B9847284B1B88D7
S1134580034217D02536009B002B06D12000264B72
S11345909847264B1E5C2036F6B22000224B9847E3
S11345A0224B1F5C2000224B9847C2B239003000D6
S11345B0204B984720001C4FB8471C4E335C98464C
S11345C020001B4B9847C3B299462000B847335C80
S11345D0022B19D0A26B0132D2B249464046164B87
S11345E09847009A01A92000144B984706006B1CB9
S11345F00CD1636A002BADD020002430104B9847B7
S11346000028A7D00126A5E70022E6E701356DB210
S11346104523E5549EE7C04669310000B1300000EF
S11346208C0000201531000095300000840000202B
S113463005310000A13D000075380000AD440000C4
S1134640DD60000010B50C00026C002A0BD0C368BA
S11346509B18C36041688B4201D30368C360C1687F
S11346602000014B984710BD45880000F8B50700AD
S1134670254B98474523FC5C64B2002C1CDD234E7B
S1134680234D0BE07B6A002B16D038002430A8475A
S113469000280ED1013C64B2002C0DD0BB6C002B61
S11346A0F0D000213800B0470028F3D0194B9847C8
S11346B0F0E7184B9847EDE7FF224523FA54164BD1
S11346C09847114B98474423FC5C64B2002C14DDDA
S11346D03B69002B11D03D0010350D4E06E0013C26
S11346E064B2002C09D03B69002B06D02800B047E7
S11346F00028F4D0074B9847F1E7FF224423FA54EB
S1134700054B9847F8BDC0462143000029450000E9
S1134710DD600000196200003943000070B5040038
S11347200D00002821D0174B98472268216CE36BB9
S11347304B43D01860600020A063A2605B1AD318BA
S1134740E360FF234422A3540132A354002D11D16A
S11347502369002B05D0200010300B4B984700280C
S113476005D10A4B9847012070BD72B6FEE7084B8D
S11347709847F6E720001030064DA8472000243063
S1134780A847EEE721430000DD6000003943000044
S11347901143000085410000F8B506000D00170024
S11347A0002801D172B6FEE7080070435430384B3C
S11347B09847041E5BD0002D3BD12060E66325643E
S11347C001212000334B98475023E7540023A3646E
S11347D02000314EB047314D285C314B984781B2AF
S11347E02000304B9847304B198820002F4B9847B6
S11347F02000B0472D5C20002D4B9847C1B2280003
S11348002C4B98472C4B98472C4B98472C4B1B8888
S1134810034212D12000204B9847204B1D5C2000FE
S1134820234B9847C1B200222800264B984720000A
S1134830F8BD030054330360C0E72000224B9847BF
S11348401F4B1B880342E5D02000134FB847134E7B
S1134850355C1835EDB22000B847365C2000144BA7
S11348609847C2B231002800184B9847D2E7124B40
S11348709847124B9847124B1B880342D7D0074BDB
S1134880D85D4030C0B20021114B9847CFE7C046F5
S1134890E54300001D47000095300000840000201F
S11348A00D390000253100008A0000204531000048
S11348B0053100009D37000069310000B13000006F
S11348C08C0000207538000015310000A13D000067
S11348D03D3F0000F0B5CE46474680B585B00400A4
S11348E0009101921D0000280DD0009B002B0CD0DC
S11348F0022D0FD0AB4B9847002810D1019B002B01
S113490010D072B6FEE772B6FEE7036C002BEFD050
S113491072B6FEE7E36B012BECD072B6FEE700271C
S1134920A14EBCE00027FBE7A04B9847A04B98475B
S1134930A04B1B8803421DD020009F4B98479D4BE2
S11349401B88034216D02527002D06D120009B4B3F
S113495098479B4B1F5C2037FFB22000974B98472A
S1134960974B1E5C2000974B9847C2B23100380029
S1134970954B98472000914EB047914F3B5C984629
S11349802000904B9847C3B299462000B0473B5C47
S1134990022B1FD0A26B0132D2B2494640468B4B48
S11349A098472A0000992000894B9847A36C002B54
S11349B012D029002000874B9847002801D0864B4D
S11349C09847864B98470123180005B00CBC9046C5
S11349D09946F0BD0022E0E7636A002B08D020006E
S11349E024307F4B98470028EBD07B4B9847E8E76F
S11349F00028E6D0784B9847E3E7784B98476B4B11
S1134A0098476B4B98476B4B1A8800230242DBD0C4
S1134A102000694B9847674B1A8800230242D3D081
S1134A204D26002D06D12000644B9847644B1E5C34
S1134A304836F6B22000614B9847614B1D5C20005C
S1134A40604B9847C2B2290030005F4B984700235F
S1134A50BAE7624B984701A902A8624B984700281D
S1134A606ED1514B9847A36B9946E76B5B4B9847C4
S1134A70B9455FD14D4B98474D4B98474D4B1B88DB
S1134A80034234D1200010300199574B984720003D
S1134A90564B9847564B9847002848D00127B047B3
S1134AA0A36BE26B934200D23EE7022D00D13BE7B9
S1134AB0019B002BA1D0002F02D102A84D4B984797
S1134AC0464B98474C4B9847374B98474423E35CF5
S1134AD05BB2013302D100224423E2544523E35C58
S1134AE05BB20133B5D100224523E254B1E7200083
S1134AF0314B98472F4B1B880342C3D07527002D99
S1134B0006D120002D4B98472D4B1F5C7037FFB208
S1134B1020002A4B98472A4B1B5C99462000294BBE
S1134B209847C2B249463800274B9847AAE72A4B10
S1134B309847B3E720002D4B98472D4B9847ADE796
S1134B4020002A4B98472A4B9847184B9847184BF4
S1134B509847184B1A880023024200D134E72000FA
S1134B60154B9847134B1A880023024200D12BE7B8
S1134B704D26002D06D12000104B9847104B1E5C8B
S1134B804836F6B220000D4B98470D4B1D5C2000B3
S1134B900C4B9847C2B2290030000B4B98470023B6
S1134BA012E7C0464562000021430000693100005D
S1134BB0B13000008C000020153100009530000059
S1134BC08400002005310000A13D0000753800007C
S1134BD0AD440000294500001143000039430000A2
S1134BE0DD600000A9610000156000006D46000052
S1134BF02D5C000091610000855A000070B5020030
S1134C0000210120064B9847041E07D0002343606F
S1134C100360C36000220021024DA847200070BD3C
S1134C2099470000D5480000F0B5DE46474680B5F8
S1134C3083B00400019116001F0000282DD0019BB1
S1134C40002B2CD0022F2FD0594B98470090A36BE8
S1134C50E26B9A425AD82000564B9847564B1B8811
S1134C600025034200D19AE05D35002F06D12000D3
S1134C70524B9847524B1D5C5835EDB220004F4BB8
S1134C8098474F4B1F5C20004E4B9847C2B23900E7
S1134C9028004D4B9847002581E072B6FEE7036C6F
S1134CA0002BCFD072B6FEE7E36B012B27D072B690
S1134CB0FEE7636A0125002B71D020002430434BAA
S1134CC0984700286BD0002E0AD00123336066E099
S1134CD001356DB24523E554012560E001255EE010
S1134CE001255CE04523E55C6DB22000314B98471B
S1134CF0314B1B8803422DD0352398461CE02C4BA6
S1134D0098470090A36BE26B9A42EBD94523E55C8C
S1134D106DB22000274B9847274B1B88034219D0BC
S1134D2035239846002F07D12000244B9847244B65
S1134D301B5C3033DBB298462000204B9847204B55
S1134D401B5C9B4620001F4B9847C2B25946404605
S1134D501D4B98472000194B9847194B1B5C9846EC
S1134D602000184B9847A26B0132D2B2C1B2404620
S1134D70174B98473A0001992000164B98476B1C33
S1134D80A6D1A36C002B94D039002000124B984775
S1134D900235002803D0002EA0D0012333600098F0
S1134DA00E4B9847280003B00CBC90469B46F0BDC0
S1134DB059430000153100008C000020953000009C
S1134DC08400002005310000A13D0000DD600000EA
S1134DD075380000AD44000029450000614300001F
S1134DE0F0B5D646474680B583B004000F001600E0
S1134DF0002804D0036C002B03D072B6FEE772B611
S1134E00FEE70368002B55D04A4B98470190A36BEB
S1134E109846E36B984567D24523E55C6DB2200064
S1134E20454B9847454B1B88034218D035239A4677
S1134E30002E07D12000424B9847424B1B5C303375
S1134E40DBB29A4620003E4B98473E4B1E5C200046
S1134E503D4B9847C2B2310050463C4B9847200026
S1134E60374B9847374B1E5C2000374B9847A26B53
S1134E700132D2B2C1B23000354B984743460133B8
S1134E80A3636B1C2AD1A36C002B18D00021200033
S1134E90304B98470235002803D0002F45D001231A
S1134EA03B6001982C4B9847280003B00CBC9046FB
S1134EB09A46F0BD4368002BA6D072B6FEE7636A3B
S1134EC00125002BEDD020002430244B98470028E6
S1134ED0E7D0002F2BD001233B60E2E701356DB210
S1134EE04523E5540125DCE72000134B9847134B79
S1134EF01B8800250342D4D05D35002E06D1200046
S1134F000F4B98470F4B1D5C5835EDB220000C4BEE
S1134F1098470C4B1F5C20000B4B9847C2B23900DA
S1134F2028000A4B98470025BBE70125B9E701256E
S1134F30B7E7C04659430000153100008C0000203B
S1134F40953000008400002005310000A13D0000E0
S1134F50753800002945000061430000DD60000051
S1134F6010B50022014B984710BDC046E14D00002A
S1134F70F0B5CE46474680B585B0041E0091019237
S1134F800BD0009B002B0AD0A44B984700280BD1D0
S1134F90019B002B0CD072B6FEE772B6FEE7036CE1
S1134FA0002BF1D072B6FEE700259D4B9846B4E085
S1134FB00025FAE7009920009A4B98479A4B9847A6
S1134FC09A4B98479A4B1B88034219D02000994B5F
S1134FD09847974B1B88034212D02000964B984663
S1134FE09847964F3D5C2835EDB22000C0473F5CA2
S1134FF02000934B9847C2B239002800914B984740
S113500020008D4FB8478D4D2B5C994620008C4B6A
S11350109847C3B298462000B8472B5C022B1ED198
S1135020814B9847884B9847C2B241464846874BC4
S11350309847013EA6632369002B07D02000103057
S1135040834B9847002801D0824B9847824B98475E
S11350500123180005B00CBC90469946F0BDA26B24
S1135060013AD2B2E1E77C4B98476F4B98476F4BBC
S113507098476F4B1A8800230242EAD020006D4BF8
S113508098476B4B1A8800230242E2D020006A4FF3
S1135090B8476A4E355C5035EDB22000B847365CEF
S11350A02000674B9847C2B231002800654B9847EF
S11350B00023CEE702A8694B984738E00022442336
S11350C0E2543FE000224523E25440E02000594BE3
S11350D09847574B1B8803424ED02000564FB84781
S11350E0564E355C6835EDB22000B847365C20007A
S11350F0534B9847C2B231002800524B98473BE0CB
S1135100200024300199564B98472000554B98476E
S1135110554B9847002846D00125C047A66B002E62
S113512000D047E7019B002B9DD0002DC2D04A4BF5
S113513098474E4B98473A4B98474423E35C5BB2FD
S11351400133BBD04523E35C5BB20133BAD0424B9D
S1135150984701A902A8464B984700282CD1200063
S1135160444B9847002821D02F4B98472F4B984702
S11351702F4B1B880342A9D120002F4B98472F4B5C
S11351801B5C022BBCD0284B9847284B9847284BD4
S11351901B880342B4D0244B98472B4B9847C0B28A
S11351A0354B9847ACE72B4B9847B5E720002D4B80
S11351B098472D4B9847AFE720002A4B98472A4B36
S11351C0984720002B4B98470028A5D0164B9847AA
S11351D0164B9847164B1A880023024200D138E731
S11351E02000144B9847124B1A880023024200D126
S11351F02FE72000104FB847104E355C5035EDB204
S11352002000B847365C20000D4B9847C2B23100ED
S113521028000C4B984700231BE7C046456200005A
S1135220214300004546000069310000B130000010
S11352308C0000201531000095300000840000200F
S113524005310000A13D0000A130000075380000C8
S1135250DD6000001143000039430000916100004B
S1135260156000006D4600002D5C0000855A0000AA
S1135270A961000091440000CD380000F0B5CE468D
S1135280474680B585B0041E019104D0036C002B01
S113529003D072B6FEE772B6FEE7B24B9847002819
S11352A004D1019B002B06D072B6FEE7002500272F
S11352B0AD4B9846BDE000250027F9E7AB4B984776
S11352C0AB4B9847AB4B1B88034219D02000AA4B29
S11352D09847A84B1B88034212D02000A74B98463E
S11352E09847A74F3D5C2835EDB22000C0473F5C8E
S11352F02000A44B9847C2B239002800A24B98471B
S113530020009E4FB8479E4D2B5C994620009D4B34
S11353109847C3B298462000B8472B5C022B24D18F
S1135320924B9847994B9847C2B241464846984B8E
S11353309847013EA6632368002B02D1954B9847FA
S113534060602369002B07D020001030924B9847EF
S1135350002801D0914B9847914B9847012528008C
S113536005B00CBC90469946F0BDA26B013AD2B28E
S1135370DBE7002D01D072B6FEE7894B98477B4BE3
S113538098477B4B98477B4B1B880342E7D0200010
S1135390794B9847774B1B880342E0D02000774B2A
S11353A098469847764F3E5C5036F6B22000C04788
S11353B03F5C2000734B9847C2B239003000724BF7
S11353C09847CCE702A8774B98473CE00022442357
S11353D0E25443E000224523E25444E02000664BBB
S11353E09847644B1B88034252D02000634B994674
S11353F09847634F3E5C6836F6B22000C8473F5C6E
S11354002000604B9847C2B2390030005E4B984789
S11354103EE02368002B52D0200024300199624BD7
S113542098472000614B9847614B984700284FD01C
S11354300127C047A66B002E00D03FE7019B002B3D
S113544097D0002FBED0564B98475A4B9847464B9F
S113545098474423E35C5BB20133B7D04523E35C54
S11354605BB20133B6D04E4B984701A902A8524B08
S11354709847002835D12000504B984700282AD05F
S11354803A4B98473A4B98473A4B1B880342A5D16D
S113549020003A4B98473A4B1B5C022BB9D0334B54
S11354A09847334B9847334B1B880342B1D02F4B5B
S11354B09847364B9847C0B2414B9847A9E72A4BC7
S11354C0984760683F4B98470500354B9847A3E7DA
S11354D0324B9847ACE72000344B9847344B9847FD
S11354E0A6E72000314B9847314B98472000334BB7
S11354F0984700289CD0002D0ED01B4B9847636A18
S11355000021002B03D0236B1B680531C91A606886
S11355102D4B9847224B9847144B9847144B984768
S1135520144B1B880025034200D118E72000124BBE
S11355309847104B1B88034200D110E720000F4FFF
S1135540B8470F4E355C5035EDB22000B847365C95
S113555020000C4B9847C2B2310028000A4B9847F0
S11355600025FCE64562000021430000693100008B
S1135570B13000008C00002015310000953000008F
S11355808400002005310000A13D0000A13000008E
S11355907538000075650000DD60000011430000EF
S11355A03943000091610000156000006D46000061
S11355B02D5C0000855A0000A961000091440000A0
S11355C0CD3800006562000071640000C06C704753
S11355D0C16470475023C05C7047000070B504007C
S11355E00D001600114B98474423E35C5BB2013372
S11355F00DD04523E35C5BB201330CD00C4B9847D0
S1135600A36B002B0BD020000A4B984770BD0022DF
S11356104423E254EDE700224523E254EEE7200060
S1135620243032002900044B9847ECE72143000062
S1135630394300006D46000041600000084B1B68C0
S11356401B68002B07D0064B1B68DB68DB685A68B5
S1135650044B1A60704701225242024B1A60F9E768
S113566038370020E8370020F0B5D6464F46464686
S1135670C0B5144B9946144B9846144F144B9A4694
S11356804B461B68002B16D0C047FB68DD68281DFD
S1135690D047104A1368013B13600A4C2368013B4E
S11356A023600D4B9847286B0C4EB0472800B04739
S11356B02368002BE8D10A4B1B68012BE0D9094B66
S11356C09847DDE7A8370020214300001C3800205C
S11356D0E7410000A437002039430000754400006E
S11356E0403700201143000070B504000D00174B33
S11356F01E68174B18680430164B9847631C13D068
S11357003419134B1B685C60A64216D8124B1868F8
S11357100F4B19680431114B9847114B1B689C427D
S113572012D20F4B1C600FE0002DE9D0084B196812
S113573004310C480C4B984706E00C4B1868044B9A
S113574019680431054B984770BDC04630380020B5
S113575034370020E741000038370020B941000009
S1135760E837002008380020A14100003C37002021
S1135770F0B5C64600B584B001900D0002939700C1
S11357803800814B9847061E00D1B6E054207E4B6A
S11357909847041E00D1ADE006633A00A52130000D
S11357A07A4B98473A1F236B9C46624407239A43DB
S11357B090462A782D33E2542B78002B0DD00135F6
S11357C02300353320003C302A781A702A78002AC6
S11357D003D0013501338342F6D100223B23E25446
S11357E00A9F042F00D90427E76267640026A66491
S11357F0231D03931800664DA84720001830A847BE
S113580024610523DB1BA3616462E6645023E65430
S1135810029A019940465F4B984720600B9B002BEE
S113582000D01C605C4B98475C4A136801331360DA
S11358305B4B1B68002B63D05A4B1B68002B07D1B2
S1135840574B1B68DB6AE26A934201D8544B1C60D5
S1135850554A136801331360E3630320534B98479D
S113586081B22000524B9847524B19882000524B6A
S113587098472000514EB04722003432C1B2032071
S11358804F4B98472000B0472C23E3181A78C1B235
S113589003204C4B98474C4B98474C4B98474C4BE8
S11358A01B88034254D12000484B9847484B1B881F
S11358B003425DD1E36A474A1268934201D9454ADB
S11358C013609800C0188000434B18180399434B89
S11358D09847434B9847334B1B680120002B05D056
S11358E02F4B1B68DA6AE36A9A4248D304B004BCBB
S11358F09046F0BD30003B4B984701204042F5E70D
S1135900274B1C601368012BA2D1334F3800364E4D
S1135910B04738001430B04738002830B04738005A
S11359203C30B04738005030B047304B98461800F0
S1135930B0472F4F3800B0472E48B0472E48B047E5
S11359402E48B0472E4B42461A602E4B1F607FE70D
S113595020001E4B98471E4B1B880342A3D02000F7
S1135960164B9847C2B203211B20274B98479AE74E
S11359702000124B9847C0B2244B98479AE7244B17
S113598098470120B2E7C046E5430000578800006D
S11359909B4100007542000021430000A437002011
S11359A03437002004380020B43700200D390000BB
S11359B0C13000008A000020E1300000A130000066
S11359C0E1390000C137000069310000B130000046
S11359D08C000020B837002040370020A14100008F
S11359E0394300007544000085410000BC370020A5
S11359F0D0370020F03700201C3800200838002061
S1135A00383700203C370020A13D0000393C00001D
S1135A101143000010B582B0114B01930023009391
S1135A20962210491048114CA047012803D0431C6A
S1135A3013D002B010BD0E4B98470128F7D172B6AF
S1135A40012252420B4B1A6002320B4B1A600022A5
S1135A500A4B1A600A4B9847EBE772B6FEE7C0465A
S1135A60E437002084E90000695600007157000003
S1135A7039660000E8370020043800203038002060
S1135A8099420000024A1368013313607047C0460C
S1135A90B0370020014B18687047C04630380020EA
S1135AA0F0B583B04C4B1B68012B03D04B4B1B68E8
S1135AB0002B06D14A4A1368013313600020494B76
S1135AC09847454B1B68002B10D0434B1B68002B99
S1135AD075D1454B1E6801361E60002E19D1434B0B
S1135AE01B681B68002B08D072B6FEE73E4B196892
S1135AF0013103203E4B9847E7E73C4A11683D4B90
S1135B001868106019603C4A1368013313603B4BFA
S1135B1098473B4B1B6800259E423AD30025334FE0
S1135B203B681B68002B30D0304B1B68DB68DC689B
S1135B3063689E4239D3231D01931800314B984763
S1135B40A36A002B03D0200018302E4B9847200066
S1135B502D4B98472D4B1B88034229D1E36A2C4ACD
S1135B601268934201D92A4A13609800C018800031
S1135B70284B18180199284B9847284B1B68E26A50
S1135B80DB6A9A42CCD30125CAE7012252421C4B5C
S1135B901A60224B1B68DA6A93009B189B001D4A0B
S1135BA09B58012B10D901250EE0154A1360F0E72C
S1135BB020001B4B9847C0B21A4B9847CEE7074AC0
S1135BC01368013313600025174B1B68002B00D0AA
S1135BD00125280003B0F0BDB0370020AC37002009
S1135BE05C040020713A000030380020383700206F
S1135BF03D3F00003C370020EC3700203D560000BC
S1135C00E8370020E7410000B13000008C0000209C
S1135C10B837002040370020A1410000343700206D
S1135C20A1300000393C000034380020F8B5374B6F
S1135C301B68002B01D172B6FEE7354B9847334BF6
S1135C401A68013A1A601B680024002B03D1314BF7
S1135C501B68002B36D1304B98472000F8BDE36A0F
S1135C602E4A1268934201D92C4A13609800C01836
S1135C7080002B4B181831002A4B98472A4B1B687D
S1135C80DB6AE26A9A4202D30122284B1A602B682B
S1135C90002B1AD0FB68DC6820001830244B98478E
S1135CA0261D3000224B98472000224B9847224B58
S1135CB01B880342D3D02000204B9847C0B2204B0E
S1135CC09847CCE71F4D2F00E1E7002C01D01E4B75
S1135CD098471E4B1C68002C0ED01D4F134E0125F7
S1135CE002E0013C002C04D0B8470028F9D035600C
